{
  "_format": "hh-sol-artifact-1",
  "contractName": "Warra_NFT",
  "sourceName": "contracts/warra-nft.sol",
  "abi": [
    {
      "inputs": [],
      "stateMutability": "nonpayable",
      "type": "constructor"
    },
    {
      "anonymous": false,
      "inputs": [
        {
          "indexed": true,
          "internalType": "address",
          "name": "owner",
          "type": "address"
        },
        {
          "indexed": true,
          "internalType": "address",
          "name": "approved",
          "type": "address"
        },
        {
          "indexed": true,
          "internalType": "uint256",
          "name": "tokenId",
          "type": "uint256"
        }
      ],
      "name": "Approval",
      "type": "event"
    },
    {
      "anonymous": false,
      "inputs": [
        {
          "indexed": true,
          "internalType": "address",
          "name": "owner",
          "type": "address"
        },
        {
          "indexed": true,
          "internalType": "address",
          "name": "operator",
          "type": "address"
        },
        {
          "indexed": false,
          "internalType": "bool",
          "name": "approved",
          "type": "bool"
        }
      ],
      "name": "ApprovalForAll",
      "type": "event"
    },
    {
      "anonymous": false,
      "inputs": [
        {
          "indexed": true,
          "internalType": "address",
          "name": "previousOwner",
          "type": "address"
        },
        {
          "indexed": true,
          "internalType": "address",
          "name": "newOwner",
          "type": "address"
        }
      ],
      "name": "OwnershipTransferred",
      "type": "event"
    },
    {
      "anonymous": false,
      "inputs": [
        {
          "indexed": true,
          "internalType": "address",
          "name": "from",
          "type": "address"
        },
        {
          "indexed": true,
          "internalType": "address",
          "name": "to",
          "type": "address"
        },
        {
          "indexed": true,
          "internalType": "uint256",
          "name": "tokenId",
          "type": "uint256"
        }
      ],
      "name": "Transfer",
      "type": "event"
    },
    {
      "anonymous": false,
      "inputs": [
        {
          "indexed": false,
          "internalType": "uint256",
          "name": "tokenId",
          "type": "uint256"
        },
        {
          "indexed": false,
          "internalType": "string",
          "name": "activity",
          "type": "string"
        },
        {
          "indexed": false,
          "internalType": "address",
          "name": "caller",
          "type": "address"
        }
      ],
      "name": "activityOnTokenCalled",
      "type": "event"
    },
    {
      "inputs": [
        {
          "internalType": "address",
          "name": "to",
          "type": "address"
        },
        {
          "internalType": "uint256",
          "name": "tokenId",
          "type": "uint256"
        }
      ],
      "name": "approve",
      "outputs": [],
      "stateMutability": "nonpayable",
      "type": "function"
    },
    {
      "inputs": [
        {
          "internalType": "uint256",
          "name": "tokenId",
          "type": "uint256"
        },
        {
          "internalType": "string",
          "name": "activity",
          "type": "string"
        }
      ],
      "name": "availService",
      "outputs": [],
      "stateMutability": "nonpayable",
      "type": "function"
    },
    {
      "inputs": [
        {
          "internalType": "address",
          "name": "owner",
          "type": "address"
        }
      ],
      "name": "balanceOf",
      "outputs": [
        {
          "internalType": "uint256",
          "name": "",
          "type": "uint256"
        }
      ],
      "stateMutability": "view",
      "type": "function"
    },
    {
      "inputs": [
        {
          "internalType": "string",
          "name": "tokenURI",
          "type": "string"
        },
        {
          "internalType": "uint256",
          "name": "numberOfDays",
          "type": "uint256"
        }
      ],
      "name": "createWarranty",
      "outputs": [
        {
          "internalType": "uint256",
          "name": "",
          "type": "uint256"
        }
      ],
      "stateMutability": "nonpayable",
      "type": "function"
    },
    {
      "inputs": [
        {
          "internalType": "uint256",
          "name": "tokenId",
          "type": "uint256"
        }
      ],
      "name": "getApproved",
      "outputs": [
        {
          "internalType": "address",
          "name": "",
          "type": "address"
        }
      ],
      "stateMutability": "view",
      "type": "function"
    },
    {
      "inputs": [
        {
          "internalType": "uint256",
          "name": "tokenId",
          "type": "uint256"
        }
      ],
      "name": "getExpiryTime",
      "outputs": [
        {
          "internalType": "uint256",
          "name": "",
          "type": "uint256"
        }
      ],
      "stateMutability": "view",
      "type": "function"
    },
    {
      "inputs": [
        {
          "internalType": "address",
          "name": "caller",
          "type": "address"
        }
      ],
      "name": "getIsNominated",
      "outputs": [
        {
          "internalType": "bool",
          "name": "",
          "type": "bool"
        }
      ],
      "stateMutability": "view",
      "type": "function"
    },
    {
      "inputs": [
        {
          "internalType": "uint256",
          "name": "tokenId",
          "type": "uint256"
        }
      ],
      "name": "getOwner",
      "outputs": [
        {
          "internalType": "address",
          "name": "",
          "type": "address"
        }
      ],
      "stateMutability": "view",
      "type": "function"
    },
    {
      "inputs": [
        {
          "internalType": "uint256",
          "name": "tokenId",
          "type": "uint256"
        }
      ],
      "name": "getProvider",
      "outputs": [
        {
          "internalType": "address",
          "name": "",
          "type": "address"
        }
      ],
      "stateMutability": "view",
      "type": "function"
    },
    {
      "inputs": [],
      "name": "getTokenCounter",
      "outputs": [
        {
          "internalType": "uint256",
          "name": "",
          "type": "uint256"
        }
      ],
      "stateMutability": "view",
      "type": "function"
    },
    {
      "inputs": [
        {
          "internalType": "uint256",
          "name": "tokenId",
          "type": "uint256"
        }
      ],
      "name": "getURI",
      "outputs": [
        {
          "internalType": "string",
          "name": "",
          "type": "string"
        }
      ],
      "stateMutability": "view",
      "type": "function"
    },
    {
      "inputs": [
        {
          "internalType": "address",
          "name": "owner",
          "type": "address"
        },
        {
          "internalType": "address",
          "name": "operator",
          "type": "address"
        }
      ],
      "name": "isApprovedForAll",
      "outputs": [
        {
          "internalType": "bool",
          "name": "",
          "type": "bool"
        }
      ],
      "stateMutability": "view",
      "type": "function"
    },
    {
      "inputs": [],
      "name": "name",
      "outputs": [
        {
          "internalType": "string",
          "name": "",
          "type": "string"
        }
      ],
      "stateMutability": "view",
      "type": "function"
    },
    {
      "inputs": [
        {
          "internalType": "address",
          "name": "nominateAddress",
          "type": "address"
        }
      ],
      "name": "nominate",
      "outputs": [],
      "stateMutability": "nonpayable",
      "type": "function"
    },
    {
      "inputs": [],
      "name": "owner",
      "outputs": [
        {
          "internalType": "address",
          "name": "",
          "type": "address"
        }
      ],
      "stateMutability": "view",
      "type": "function"
    },
    {
      "inputs": [
        {
          "internalType": "uint256",
          "name": "tokenId",
          "type": "uint256"
        }
      ],
      "name": "ownerOf",
      "outputs": [
        {
          "internalType": "address",
          "name": "",
          "type": "address"
        }
      ],
      "stateMutability": "view",
      "type": "function"
    },
    {
      "inputs": [
        {
          "internalType": "uint256",
          "name": "tokenId",
          "type": "uint256"
        }
      ],
      "name": "proveOwnership",
      "outputs": [
        {
          "internalType": "bool",
          "name": "",
          "type": "bool"
        }
      ],
      "stateMutability": "view",
      "type": "function"
    },
    {
      "inputs": [],
      "name": "renounceOwnership",
      "outputs": [],
      "stateMutability": "nonpayable",
      "type": "function"
    },
    {
      "inputs": [
        {
          "internalType": "address",
          "name": "from",
          "type": "address"
        },
        {
          "internalType": "address",
          "name": "to",
          "type": "address"
        },
        {
          "internalType": "uint256",
          "name": "tokenId",
          "type": "uint256"
        }
      ],
      "name": "safeTransferFrom",
      "outputs": [],
      "stateMutability": "nonpayable",
      "type": "function"
    },
    {
      "inputs": [
        {
          "internalType": "address",
          "name": "from",
          "type": "address"
        },
        {
          "internalType": "address",
          "name": "to",
          "type": "address"
        },
        {
          "internalType": "uint256",
          "name": "tokenId",
          "type": "uint256"
        },
        {
          "internalType": "bytes",
          "name": "data",
          "type": "bytes"
        }
      ],
      "name": "safeTransferFrom",
      "outputs": [],
      "stateMutability": "nonpayable",
      "type": "function"
    },
    {
      "inputs": [
        {
          "internalType": "address",
          "name": "operator",
          "type": "address"
        },
        {
          "internalType": "bool",
          "name": "approved",
          "type": "bool"
        }
      ],
      "name": "setApprovalForAll",
      "outputs": [],
      "stateMutability": "nonpayable",
      "type": "function"
    },
    {
      "inputs": [
        {
          "internalType": "bytes4",
          "name": "interfaceId",
          "type": "bytes4"
        }
      ],
      "name": "supportsInterface",
      "outputs": [
        {
          "internalType": "bool",
          "name": "",
          "type": "bool"
        }
      ],
      "stateMutability": "view",
      "type": "function"
    },
    {
      "inputs": [],
      "name": "symbol",
      "outputs": [
        {
          "internalType": "string",
          "name": "",
          "type": "string"
        }
      ],
      "stateMutability": "view",
      "type": "function"
    },
    {
      "inputs": [
        {
          "internalType": "uint256",
          "name": "tokenId",
          "type": "uint256"
        }
      ],
      "name": "tokenURI",
      "outputs": [
        {
          "internalType": "string",
          "name": "",
          "type": "string"
        }
      ],
      "stateMutability": "view",
      "type": "function"
    },
    {
      "inputs": [
        {
          "internalType": "address",
          "name": "to",
          "type": "address"
        },
        {
          "internalType": "uint256",
          "name": "tokenId",
          "type": "uint256"
        }
      ],
      "name": "transfer",
      "outputs": [],
      "stateMutability": "nonpayable",
      "type": "function"
    },
    {
      "inputs": [
        {
          "internalType": "address",
          "name": "from",
          "type": "address"
        },
        {
          "internalType": "address",
          "name": "to",
          "type": "address"
        },
        {
          "internalType": "uint256",
          "name": "tokenId",
          "type": "uint256"
        }
      ],
      "name": "transferFrom",
      "outputs": [],
      "stateMutability": "nonpayable",
      "type": "function"
    },
    {
      "inputs": [
        {
          "internalType": "address",
          "name": "newOwner",
          "type": "address"
        }
      ],
      "name": "transferOwnership",
      "outputs": [],
      "stateMutability": "nonpayable",
      "type": "function"
    }
  ],
  "bytecode": "0x60806040523480156200001157600080fd5b506040518060400160405280600a81526020017f652d57617272616e7479000000000000000000000000000000000000000000008152506040518060400160405280600681526020017f652d574e46540000000000000000000000000000000000000000000000000000815250816000908051906020019062000096929190620001ae565b508060019080519060200190620000af929190620001ae565b505050620000d2620000c6620000e060201b60201c565b620000e860201b60201c565b6000600881905550620002c3565b600033905090565b6000600760009054906101000a900473ffffffffffffffffffffffffffffffffffffffff16905081600760006101000a81548173ffffffffffffffffffffffffffffffffffffffff021916908373ffffffffffffffffffffffffffffffffffffffff1602179055508173ffffffffffffffffffffffffffffffffffffffff168173ffffffffffffffffffffffffffffffffffffffff167f8be0079c531659141344cd1fd0a4f28419497f9722a3daafe3b4186f6b6457e060405160405180910390a35050565b828054620001bc906200028d565b90600052602060002090601f016020900481019282620001e057600085556200022c565b82601f10620001fb57805160ff19168380011785556200022c565b828001600101855582156200022c579182015b828111156200022b5782518255916020019190600101906200020e565b5b5090506200023b91906200023f565b5090565b5b808211156200025a57600081600090555060010162000240565b5090565b7f4e487b7100000000000000000000000000000000000000000000000000000000600052602260045260246000fd5b60006002820490506001821680620002a657607f821691505b60208210811415620002bd57620002bc6200025e565b5b50919050565b61374f80620002d36000396000f3fe608060405234801561001057600080fd5b50600436106101a95760003560e01c8063715018a6116100f9578063b88d4fde11610097578063d831a7c611610071578063d831a7c6146104f0578063e83627fa14610520578063e985e9c514610550578063f2fde38b14610580576101a9565b8063b88d4fde14610474578063c41a360a14610490578063c87b56dd146104c0576101a9565b8063a22cb465116100d3578063a22cb465146103f0578063a9059cbb1461040c578063ae30d69b14610428578063b332180b14610458576101a9565b8063715018a6146103aa5780638da5cb5b146103b457806395d89b41146103d2576101a9565b8063319da29b116101665780635c42d079116101405780635c42d079146102fc5780636352211e1461032c5780636e02007d1461035c57806370a082311461037a576101a9565b8063319da29b1461029457806335321c40146102b057806342842e0e146102e0576101a9565b806301ffc9a7146101ae57806306fdde03146101de578063081812fc146101fc578063095ea7b31461022c5780631aa347dc1461024857806323b872dd14610278575b600080fd5b6101c860048036038101906101c391906122b3565b61059c565b6040516101d591906122fb565b60405180910390f35b6101e661067e565b6040516101f391906123af565b60405180910390f35b61021660048036038101906102119190612407565b610710565b6040516102239190612475565b60405180910390f35b610246600480360381019061024191906124bc565b610756565b005b610262600480360381019061025d9190612407565b61086e565b60405161026f91906123af565b60405180910390f35b610292600480360381019061028d91906124fc565b610880565b005b6102ae60048036038101906102a99190612684565b6108e0565b005b6102ca60048036038101906102c591906126e0565b6109c2565b6040516102d791906122fb565b60405180910390f35b6102fa60048036038101906102f591906124fc565b610a18565b005b61031660048036038101906103119190612407565b610a38565b6040516103239190612475565b60405180910390f35b61034660048036038101906103419190612407565b610a75565b6040516103539190612475565b60405180910390f35b610364610b27565b604051610371919061271c565b60405180910390f35b610394600480360381019061038f91906126e0565b610b31565b6040516103a1919061271c565b60405180910390f35b6103b2610be9565b005b6103bc610bfd565b6040516103c99190612475565b60405180910390f35b6103da610c27565b6040516103e791906123af565b60405180910390f35b61040a60048036038101906104059190612763565b610cb9565b005b610426600480360381019061042191906124bc565b610ccf565b005b610442600480360381019061043d91906127a3565b610d6d565b60405161044f919061271c565b60405180910390f35b610472600480360381019061046d91906126e0565b610f2e565b005b61048e600480360381019061048991906128a0565b611052565b005b6104aa60048036038101906104a59190612407565b6110b4565b6040516104b79190612475565b60405180910390f35b6104da60048036038101906104d59190612407565b6110c6565b6040516104e791906123af565b60405180910390f35b61050a60048036038101906105059190612407565b6111d9565b604051610517919061271c565b60405180910390f35b61053a60048036038101906105359190612407565b6111f6565b60405161054791906122fb565b60405180910390f35b61056a60048036038101906105659190612923565b611236565b60405161057791906122fb565b60405180910390f35b61059a600480360381019061059591906126e0565b6112ca565b005b60007f80ac58cd000000000000000000000000000000000000000000000000000000007bffffffffffffffffffffffffffffffffffffffffffffffffffffffff1916827bffffffffffffffffffffffffffffffffffffffffffffffffffffffff1916148061066757507f5b5e139f000000000000000000000000000000000000000000000000000000007bffffffffffffffffffffffffffffffffffffffffffffffffffffffff1916827bffffffffffffffffffffffffffffffffffffffffffffffffffffffff1916145b8061067757506106768261134e565b5b9050919050565b60606000805461068d90612992565b80601f01602080910402602001604051908101604052809291908181526020018280546106b990612992565b80156107065780601f106106db57610100808354040283529160200191610706565b820191906000526020600020905b8154815290600101906020018083116106e957829003601f168201915b5050505050905090565b600061071b826113b8565b6004600083815260200190815260200160002060009054906101000a900473ffffffffffffffffffffffffffffffffffffffff169050919050565b600061076182610a75565b90508073ffffffffffffffffffffffffffffffffffffffff168373ffffffffffffffffffffffffffffffffffffffff1614156107d2576040517f08c379a00000000000000000000000000000000000000000000000000000000081526004016107c990612a36565b60405180910390fd5b8073ffffffffffffffffffffffffffffffffffffffff166107f1611403565b73ffffffffffffffffffffffffffffffffffffffff161480610820575061081f8161081a611403565b611236565b5b61085f576040517f08c379a000000000000000000000000000000000000000000000000000000000815260040161085690612ac8565b60405180910390fd5b610869838361140b565b505050565b6060610879826110c6565b9050919050565b61089161088b611403565b826114c4565b6108d0576040517f08c379a00000000000000000000000000000000000000000000000000000000081526004016108c790612b5a565b60405180910390fd5b6108db838383611559565b505050565b81600b600082815260200190815260200160002060009054906101000a900473ffffffffffffffffffffffffffffffffffffffff1673ffffffffffffffffffffffffffffffffffffffff163373ffffffffffffffffffffffffffffffffffffffff1614610982576040517f08c379a000000000000000000000000000000000000000000000000000000000815260040161097990612bc6565b60405180910390fd5b7f0f51a7191c13867a3b27e41f94bd5c2175b01efebc5dfbd6540f1d86ac4eb0898383336040516109b593929190612be6565b60405180910390a1505050565b6000600960008373ffffffffffffffffffffffffffffffffffffffff1673ffffffffffffffffffffffffffffffffffffffff16815260200190815260200160002060009054906101000a900460ff169050919050565b610a3383838360405180602001604052806000815250611052565b505050565b6000600b600083815260200190815260200160002060009054906101000a900473ffffffffffffffffffffffffffffffffffffffff169050919050565b6000806002600084815260200190815260200160002060009054906101000a900473ffffffffffffffffffffffffffffffffffffffff169050600073ffffffffffffffffffffffffffffffffffffffff168173ffffffffffffffffffffffffffffffffffffffff161415610b1e576040517f08c379a0000000000000000000000000000000000000000000000000000000008152600401610b1590612c70565b60405180910390fd5b80915050919050565b6000600854905090565b60008073ffffffffffffffffffffffffffffffffffffffff168273ffffffffffffffffffffffffffffffffffffffff161415610ba2576040517f08c379a0000000000000000000000000000000000000000000000000000000008152600401610b9990612d02565b60405180910390fd5b600360008373ffffffffffffffffffffffffffffffffffffffff1673ffffffffffffffffffffffffffffffffffffffff168152602001908152602001600020549050919050565b610bf16117c0565b610bfb600061183e565b565b6000600760009054906101000a900473ffffffffffffffffffffffffffffffffffffffff16905090565b606060018054610c3690612992565b80601f0160208091040260200160405190810160405280929190818152602001828054610c6290612992565b8015610caf5780601f10610c8457610100808354040283529160200191610caf565b820191906000526020600020905b815481529060010190602001808311610c9257829003601f168201915b5050505050905090565b610ccb610cc4611403565b8383611904565b5050565b600a600082815260200190815260200160002054421115610d25576040517f08c379a0000000000000000000000000000000000000000000000000000000008152600401610d1c90612d6e565b60405180910390fd5b610d30338383610a18565b7f0f51a7191c13867a3b27e41f94bd5c2175b01efebc5dfbd6540f1d86ac4eb0898133604051610d61929190612dda565b60405180910390a15050565b6000610d77610bfd565b73ffffffffffffffffffffffffffffffffffffffff163373ffffffffffffffffffffffffffffffffffffffff161480610df95750600960003373ffffffffffffffffffffffffffffffffffffffff1673ffffffffffffffffffffffffffffffffffffffff16815260200190815260200160002060009054906101000a900460ff165b610e38576040517f08c379a0000000000000000000000000000000000000000000000000000000008152600401610e2f90612e88565b60405180910390fd5b60006008549050610e493382611a71565b610e538185611a8f565b6001600854610e629190612ed7565b60088190555033600b600083815260200190815260200160002060006101000a81548173ffffffffffffffffffffffffffffffffffffffff021916908373ffffffffffffffffffffffffffffffffffffffff1602179055507f0f51a7191c13867a3b27e41f94bd5c2175b01efebc5dfbd6540f1d86ac4eb0898133604051610eeb929190612f79565b60405180910390a16201518083610f029190612fb5565b42610f0d9190612ed7565b600a6000838152602001908152602001600020819055508091505092915050565b610f36610bfd565b73ffffffffffffffffffffffffffffffffffffffff163373ffffffffffffffffffffffffffffffffffffffff161480610fb85750600960003373ffffffffffffffffffffffffffffffffffffffff1673ffffffffffffffffffffffffffffffffffffffff16815260200190815260200160002060009054906101000a900460ff165b610ff7576040517f08c379a0000000000000000000000000000000000000000000000000000000008152600401610fee90612e88565b60405180910390fd5b6001600960008373ffffffffffffffffffffffffffffffffffffffff1673ffffffffffffffffffffffffffffffffffffffff16815260200190815260200160002060006101000a81548160ff02191690831515021790555050565b61106361105d611403565b836114c4565b6110a2576040517f08c379a000000000000000000000000000000000000000000000000000000000815260040161109990612b5a565b60405180910390fd5b6110ae84848484611b03565b50505050565b60006110bf82610a75565b9050919050565b60606110d1826113b8565b60006006600084815260200190815260200160002080546110f190612992565b80601f016020809104026020016040519081016040528092919081815260200182805461111d90612992565b801561116a5780601f1061113f5761010080835404028352916020019161116a565b820191906000526020600020905b81548152906001019060200180831161114d57829003601f168201915b50505050509050600061117b611b5f565b90506000815114156111915781925050506111d4565b6000825111156111c65780826040516020016111ae92919061304b565b604051602081830303815290604052925050506111d4565b6111cf84611b76565b925050505b919050565b6000600a6000838152602001908152602001600020549050919050565b6000611201826110b4565b73ffffffffffffffffffffffffffffffffffffffff163373ffffffffffffffffffffffffffffffffffffffff16149050919050565b6000600560008473ffffffffffffffffffffffffffffffffffffffff1673ffffffffffffffffffffffffffffffffffffffff16815260200190815260200160002060008373ffffffffffffffffffffffffffffffffffffffff1673ffffffffffffffffffffffffffffffffffffffff16815260200190815260200160002060009054906101000a900460ff16905092915050565b6112d26117c0565b600073ffffffffffffffffffffffffffffffffffffffff168173ffffffffffffffffffffffffffffffffffffffff161415611342576040517f08c379a0000000000000000000000000000000000000000000000000000000008152600401611339906130e1565b60405180910390fd5b61134b8161183e565b50565b60007f01ffc9a7000000000000000000000000000000000000000000000000000000007bffffffffffffffffffffffffffffffffffffffffffffffffffffffff1916827bffffffffffffffffffffffffffffffffffffffffffffffffffffffff1916149050919050565b6113c181611bde565b611400576040517f08c379a00000000000000000000000000000000000000000000000000000000081526004016113f790612c70565b60405180910390fd5b50565b600033905090565b816004600083815260200190815260200160002060006101000a81548173ffffffffffffffffffffffffffffffffffffffff021916908373ffffffffffffffffffffffffffffffffffffffff160217905550808273ffffffffffffffffffffffffffffffffffffffff1661147e83610a75565b73ffffffffffffffffffffffffffffffffffffffff167f8c5be1e5ebec7d5bd14f71427d1e84f3dd0314c0f7b2291e5b200ac8c7c3b92560405160405180910390a45050565b6000806114d083610a75565b90508073ffffffffffffffffffffffffffffffffffffffff168473ffffffffffffffffffffffffffffffffffffffff16148061151257506115118185611236565b5b8061155057508373ffffffffffffffffffffffffffffffffffffffff1661153884610710565b73ffffffffffffffffffffffffffffffffffffffff16145b91505092915050565b8273ffffffffffffffffffffffffffffffffffffffff1661157982610a75565b73ffffffffffffffffffffffffffffffffffffffff16146115cf576040517f08c379a00000000000000000000000000000000000000000000000000000000081526004016115c690613173565b60405180910390fd5b600073ffffffffffffffffffffffffffffffffffffffff168273ffffffffffffffffffffffffffffffffffffffff16141561163f576040517f08c379a000000000000000000000000000000000000000000000000000000000815260040161163690613205565b60405180910390fd5b61164a838383611c4a565b61165560008261140b565b6001600360008573ffffffffffffffffffffffffffffffffffffffff1673ffffffffffffffffffffffffffffffffffffffff16815260200190815260200160002060008282546116a59190613225565b925050819055506001600360008473ffffffffffffffffffffffffffffffffffffffff1673ffffffffffffffffffffffffffffffffffffffff16815260200190815260200160002060008282546116fc9190612ed7565b92505081905550816002600083815260200190815260200160002060006101000a81548173ffffffffffffffffffffffffffffffffffffffff021916908373ffffffffffffffffffffffffffffffffffffffff160217905550808273ffffffffffffffffffffffffffffffffffffffff168473ffffffffffffffffffffffffffffffffffffffff167fddf252ad1be2c89b69c2b068fc378daa952ba7f163c4a11628f55a4df523b3ef60405160405180910390a46117bb838383611c4f565b505050565b6117c8611403565b73ffffffffffffffffffffffffffffffffffffffff166117e6610bfd565b73ffffffffffffffffffffffffffffffffffffffff161461183c576040517f08c379a0000000000000000000000000000000000000000000000000000000008152600401611833906132a5565b60405180910390fd5b565b6000600760009054906101000a900473ffffffffffffffffffffffffffffffffffffffff16905081600760006101000a81548173ffffffffffffffffffffffffffffffffffffffff021916908373ffffffffffffffffffffffffffffffffffffffff1602179055508173ffffffffffffffffffffffffffffffffffffffff168173ffffffffffffffffffffffffffffffffffffffff167f8be0079c531659141344cd1fd0a4f28419497f9722a3daafe3b4186f6b6457e060405160405180910390a35050565b8173ffffffffffffffffffffffffffffffffffffffff168373ffffffffffffffffffffffffffffffffffffffff161415611973576040517f08c379a000000000000000000000000000000000000000000000000000000000815260040161196a90613311565b60405180910390fd5b80600560008573ffffffffffffffffffffffffffffffffffffffff1673ffffffffffffffffffffffffffffffffffffffff16815260200190815260200160002060008473ffffffffffffffffffffffffffffffffffffffff1673ffffffffffffffffffffffffffffffffffffffff16815260200190815260200160002060006101000a81548160ff0219169083151502179055508173ffffffffffffffffffffffffffffffffffffffff168373ffffffffffffffffffffffffffffffffffffffff167f17307eab39ab6107e8899845ad3d59bd9653f200f220920489ca2b5937696c3183604051611a6491906122fb565b60405180910390a3505050565b611a8b828260405180602001604052806000815250611c54565b5050565b611a9882611bde565b611ad7576040517f08c379a0000000000000000000000000000000000000000000000000000000008152600401611ace906133a3565b60405180910390fd5b80600660008481526020019081526020016000209080519060200190611afe9291906121a4565b505050565b611b0e848484611559565b611b1a84848484611caf565b611b59576040517f08c379a0000000000000000000000000000000000000000000000000000000008152600401611b5090613435565b60405180910390fd5b50505050565b606060405180602001604052806000815250905090565b6060611b81826113b8565b6000611b8b611b5f565b90506000815111611bab5760405180602001604052806000815250611bd6565b80611bb584611e46565b604051602001611bc692919061304b565b6040516020818303038152906040525b915050919050565b60008073ffffffffffffffffffffffffffffffffffffffff166002600084815260200190815260200160002060009054906101000a900473ffffffffffffffffffffffffffffffffffffffff1673ffffffffffffffffffffffffffffffffffffffff1614159050919050565b505050565b505050565b611c5e8383611fa7565b611c6b6000848484611caf565b611caa576040517f08c379a0000000000000000000000000000000000000000000000000000000008152600401611ca190613435565b60405180910390fd5b505050565b6000611cd08473ffffffffffffffffffffffffffffffffffffffff16612181565b15611e39578373ffffffffffffffffffffffffffffffffffffffff1663150b7a02611cf9611403565b8786866040518563ffffffff1660e01b8152600401611d1b94939291906134aa565b602060405180830381600087803b158015611d3557600080fd5b505af1925050508015611d6657506040513d601f19601f82011682018060405250810190611d63919061350b565b60015b611de9573d8060008114611d96576040519150601f19603f3d011682016040523d82523d6000602084013e611d9b565b606091505b50600081511415611de1576040517f08c379a0000000000000000000000000000000000000000000000000000000008152600401611dd890613435565b60405180910390fd5b805181602001fd5b63150b7a0260e01b7bffffffffffffffffffffffffffffffffffffffffffffffffffffffff1916817bffffffffffffffffffffffffffffffffffffffffffffffffffffffff191614915050611e3e565b600190505b949350505050565b60606000821415611e8e576040518060400160405280600181526020017f30000000000000000000000000000000000000000000000000000000000000008152509050611fa2565b600082905060005b60008214611ec0578080611ea990613538565b915050600a82611eb991906135b0565b9150611e96565b60008167ffffffffffffffff811115611edc57611edb612559565b5b6040519080825280601f01601f191660200182016040528015611f0e5781602001600182028036833780820191505090505b5090505b60008514611f9b57600182611f279190613225565b9150600a85611f3691906135e1565b6030611f429190612ed7565b60f81b818381518110611f5857611f57613612565b5b60200101907effffffffffffffffffffffffffffffffffffffffffffffffffffffffffffff1916908160001a905350600a85611f9491906135b0565b9450611f12565b8093505050505b919050565b600073ffffffffffffffffffffffffffffffffffffffff168273ffffffffffffffffffffffffffffffffffffffff161415612017576040517f08c379a000000000000000000000000000000000000000000000000000000000815260040161200e9061368d565b60405180910390fd5b61202081611bde565b15612060576040517f08c379a0000000000000000000000000000000000000000000000000000000008152600401612057906136f9565b60405180910390fd5b61206c60008383611c4a565b6001600360008473ffffffffffffffffffffffffffffffffffffffff1673ffffffffffffffffffffffffffffffffffffffff16815260200190815260200160002060008282546120bc9190612ed7565b92505081905550816002600083815260200190815260200160002060006101000a81548173ffffffffffffffffffffffffffffffffffffffff021916908373ffffffffffffffffffffffffffffffffffffffff160217905550808273ffffffffffffffffffffffffffffffffffffffff16600073ffffffffffffffffffffffffffffffffffffffff167fddf252ad1be2c89b69c2b068fc378daa952ba7f163c4a11628f55a4df523b3ef60405160405180910390a461217d60008383611c4f565b5050565b6000808273ffffffffffffffffffffffffffffffffffffffff163b119050919050565b8280546121b090612992565b90600052602060002090601f0160209004810192826121d25760008555612219565b82601f106121eb57805160ff1916838001178555612219565b82800160010185558215612219579182015b828111156122185782518255916020019190600101906121fd565b5b509050612226919061222a565b5090565b5b8082111561224357600081600090555060010161222b565b5090565b6000604051905090565b600080fd5b600080fd5b60007fffffffff0000000000000000000000000000000000000000000000000000000082169050919050565b6122908161225b565b811461229b57600080fd5b50565b6000813590506122ad81612287565b92915050565b6000602082840312156122c9576122c8612251565b5b60006122d78482850161229e565b91505092915050565b60008115159050919050565b6122f5816122e0565b82525050565b600060208201905061231060008301846122ec565b92915050565b600081519050919050565b600082825260208201905092915050565b60005b83811015612350578082015181840152602081019050612335565b8381111561235f576000848401525b50505050565b6000601f19601f8301169050919050565b600061238182612316565b61238b8185612321565b935061239b818560208601612332565b6123a481612365565b840191505092915050565b600060208201905081810360008301526123c98184612376565b905092915050565b6000819050919050565b6123e4816123d1565b81146123ef57600080fd5b50565b600081359050612401816123db565b92915050565b60006020828403121561241d5761241c612251565b5b600061242b848285016123f2565b91505092915050565b600073ffffffffffffffffffffffffffffffffffffffff82169050919050565b600061245f82612434565b9050919050565b61246f81612454565b82525050565b600060208201905061248a6000830184612466565b92915050565b61249981612454565b81146124a457600080fd5b50565b6000813590506124b681612490565b92915050565b600080604083850312156124d3576124d2612251565b5b60006124e1858286016124a7565b92505060206124f2858286016123f2565b9150509250929050565b60008060006060848603121561251557612514612251565b5b6000612523868287016124a7565b9350506020612534868287016124a7565b9250506040612545868287016123f2565b9150509250925092565b600080fd5b600080fd5b7f4e487b7100000000000000000000000000000000000000000000000000000000600052604160045260246000fd5b61259182612365565b810181811067ffffffffffffffff821117156125b0576125af612559565b5b80604052505050565b60006125c3612247565b90506125cf8282612588565b919050565b600067ffffffffffffffff8211156125ef576125ee612559565b5b6125f882612365565b9050602081019050919050565b82818337600083830152505050565b6000612627612622846125d4565b6125b9565b90508281526020810184848401111561264357612642612554565b5b61264e848285612605565b509392505050565b600082601f83011261266b5761266a61254f565b5b813561267b848260208601612614565b91505092915050565b6000806040838503121561269b5761269a612251565b5b60006126a9858286016123f2565b925050602083013567ffffffffffffffff8111156126ca576126c9612256565b5b6126d685828601612656565b9150509250929050565b6000602082840312156126f6576126f5612251565b5b6000612704848285016124a7565b91505092915050565b612716816123d1565b82525050565b6000602082019050612731600083018461270d565b92915050565b612740816122e0565b811461274b57600080fd5b50565b60008135905061275d81612737565b92915050565b6000806040838503121561277a57612779612251565b5b6000612788858286016124a7565b92505060206127998582860161274e565b9150509250929050565b600080604083850312156127ba576127b9612251565b5b600083013567ffffffffffffffff8111156127d8576127d7612256565b5b6127e485828601612656565b92505060206127f5858286016123f2565b9150509250929050565b600067ffffffffffffffff82111561281a57612819612559565b5b61282382612365565b9050602081019050919050565b600061284361283e846127ff565b6125b9565b90508281526020810184848401111561285f5761285e612554565b5b61286a848285612605565b509392505050565b600082601f8301126128875761288661254f565b5b8135612897848260208601612830565b91505092915050565b600080600080608085870312156128ba576128b9612251565b5b60006128c8878288016124a7565b94505060206128d9878288016124a7565b93505060406128ea878288016123f2565b925050606085013567ffffffffffffffff81111561290b5761290a612256565b5b61291787828801612872565b91505092959194509250565b6000806040838503121561293a57612939612251565b5b6000612948858286016124a7565b9250506020612959858286016124a7565b9150509250929050565b7f4e487b7100000000000000000000000000000000000000000000000000000000600052602260045260246000fd5b600060028204905060018216806129aa57607f821691505b602082108114156129be576129bd612963565b5b50919050565b7f4552433732313a20617070726f76616c20746f2063757272656e74206f776e6560008201527f7200000000000000000000000000000000000000000000000000000000000000602082015250565b6000612a20602183612321565b9150612a2b826129c4565b604082019050919050565b60006020820190508181036000830152612a4f81612a13565b9050919050565b7f4552433732313a20617070726f76652063616c6c6572206973206e6f7420746f60008201527f6b656e206f776e6572206e6f7220617070726f76656420666f7220616c6c0000602082015250565b6000612ab2603e83612321565b9150612abd82612a56565b604082019050919050565b60006020820190508181036000830152612ae181612aa5565b9050919050565b7f4552433732313a2063616c6c6572206973206e6f7420746f6b656e206f776e6560008201527f72206e6f7220617070726f766564000000000000000000000000000000000000602082015250565b6000612b44602e83612321565b9150612b4f82612ae8565b604082019050919050565b60006020820190508181036000830152612b7381612b37565b9050919050565b7f43616c6c6572206973206e6f742070726f7669646572206f6620652d574e4654600082015250565b6000612bb0602083612321565b9150612bbb82612b7a565b602082019050919050565b60006020820190508181036000830152612bdf81612ba3565b9050919050565b6000606082019050612bfb600083018661270d565b8181036020830152612c0d8185612376565b9050612c1c6040830184612466565b949350505050565b7f4552433732313a20696e76616c696420746f6b656e2049440000000000000000600082015250565b6000612c5a601883612321565b9150612c6582612c24565b602082019050919050565b60006020820190508181036000830152612c8981612c4d565b9050919050565b7f4552433732313a2061646472657373207a65726f206973206e6f74206120766160008201527f6c6964206f776e65720000000000000000000000000000000000000000000000602082015250565b6000612cec602983612321565b9150612cf782612c90565b604082019050919050565b60006020820190508181036000830152612d1b81612cdf565b9050919050565b7f652d574e46542068617320657870697265642100000000000000000000000000600082015250565b6000612d58601383612321565b9150612d6382612d22565b602082019050919050565b60006020820190508181036000830152612d8781612d4b565b9050919050565b7f5452414e53464552000000000000000000000000000000000000000000000000600082015250565b6000612dc4600883612321565b9150612dcf82612d8e565b602082019050919050565b6000606082019050612def600083018561270d565b8181036020830152612e0081612db7565b9050612e0f6040830184612466565b9392505050565b7f43616c6c6572206973206e656974686572206f776e6572206e6f72206e6f6d6960008201527f6e61746564000000000000000000000000000000000000000000000000000000602082015250565b6000612e72602583612321565b9150612e7d82612e16565b604082019050919050565b60006020820190508181036000830152612ea181612e65565b9050919050565b7f4e487b7100000000000000000000000000000000000000000000000000000000600052601160045260246000fd5b6000612ee2826123d1565b9150612eed836123d1565b9250827fffffffffffffffffffffffffffffffffffffffffffffffffffffffffffffffff03821115612f2257612f21612ea8565b5b828201905092915050565b7f4352454154450000000000000000000000000000000000000000000000000000600082015250565b6000612f63600683612321565b9150612f6e82612f2d565b602082019050919050565b6000606082019050612f8e600083018561270d565b8181036020830152612f9f81612f56565b9050612fae6040830184612466565b9392505050565b6000612fc0826123d1565b9150612fcb836123d1565b9250817fffffffffffffffffffffffffffffffffffffffffffffffffffffffffffffffff048311821515161561300457613003612ea8565b5b828202905092915050565b600081905092915050565b600061302582612316565b61302f818561300f565b935061303f818560208601612332565b80840191505092915050565b6000613057828561301a565b9150613063828461301a565b91508190509392505050565b7f4f776e61626c653a206e6577206f776e657220697320746865207a65726f206160008201527f6464726573730000000000000000000000000000000000000000000000000000602082015250565b60006130cb602683612321565b91506130d68261306f565b604082019050919050565b600060208201905081810360008301526130fa816130be565b9050919050565b7f4552433732313a207472616e736665722066726f6d20696e636f72726563742060008201527f6f776e6572000000000000000000000000000000000000000000000000000000602082015250565b600061315d602583612321565b915061316882613101565b604082019050919050565b6000602082019050818103600083015261318c81613150565b9050919050565b7f4552433732313a207472616e7366657220746f20746865207a65726f2061646460008201527f7265737300000000000000000000000000000000000000000000000000000000602082015250565b60006131ef602483612321565b91506131fa82613193565b604082019050919050565b6000602082019050818103600083015261321e816131e2565b9050919050565b6000613230826123d1565b915061323b836123d1565b92508282101561324e5761324d612ea8565b5b828203905092915050565b7f4f776e61626c653a2063616c6c6572206973206e6f7420746865206f776e6572600082015250565b600061328f602083612321565b915061329a82613259565b602082019050919050565b600060208201905081810360008301526132be81613282565b9050919050565b7f4552433732313a20617070726f766520746f2063616c6c657200000000000000600082015250565b60006132fb601983612321565b9150613306826132c5565b602082019050919050565b6000602082019050818103600083015261332a816132ee565b9050919050565b7f45524337323155524953746f726167653a2055524920736574206f66206e6f6e60008201527f6578697374656e7420746f6b656e000000000000000000000000000000000000602082015250565b600061338d602e83612321565b915061339882613331565b604082019050919050565b600060208201905081810360008301526133bc81613380565b9050919050565b7f4552433732313a207472616e7366657220746f206e6f6e20455243373231526560008201527f63656976657220696d706c656d656e7465720000000000000000000000000000602082015250565b600061341f603283612321565b915061342a826133c3565b604082019050919050565b6000602082019050818103600083015261344e81613412565b9050919050565b600081519050919050565b600082825260208201905092915050565b600061347c82613455565b6134868185613460565b9350613496818560208601612332565b61349f81612365565b840191505092915050565b60006080820190506134bf6000830187612466565b6134cc6020830186612466565b6134d9604083018561270d565b81810360608301526134eb8184613471565b905095945050505050565b60008151905061350581612287565b92915050565b60006020828403121561352157613520612251565b5b600061352f848285016134f6565b91505092915050565b6000613543826123d1565b91507fffffffffffffffffffffffffffffffffffffffffffffffffffffffffffffffff82141561357657613575612ea8565b5b600182019050919050565b7f4e487b7100000000000000000000000000000000000000000000000000000000600052601260045260246000fd5b60006135bb826123d1565b91506135c6836123d1565b9250826135d6576135d5613581565b5b828204905092915050565b60006135ec826123d1565b91506135f7836123d1565b92508261360757613606613581565b5b828206905092915050565b7f4e487b7100000000000000000000000000000000000000000000000000000000600052603260045260246000fd5b7f4552433732313a206d696e7420746f20746865207a65726f2061646472657373600082015250565b6000613677602083612321565b915061368282613641565b602082019050919050565b600060208201905081810360008301526136a68161366a565b9050919050565b7f4552433732313a20746f6b656e20616c7265616479206d696e74656400000000600082015250565b60006136e3601c83612321565b91506136ee826136ad565b602082019050919050565b60006020820190508181036000830152613712816136d6565b905091905056fea26469706673582212208a37f9f84672539d8b10c8dee62ee041e04638450257ae732e94773cccc9c39e64736f6c63430008090033",
  "linkReferences": {},
  "deployedLinkReferences": {}
}