{
  "_format": "hh-sol-artifact-1",
  "contractName": "Warra_NFT",
  "sourceName": "contracts/warra-nft.sol",
  "abi": [
    {
      "inputs": [],
      "stateMutability": "nonpayable",
      "type": "constructor"
    },
    {
      "anonymous": false,
      "inputs": [
        {
          "indexed": true,
          "internalType": "address",
          "name": "owner",
          "type": "address"
        },
        {
          "indexed": true,
          "internalType": "address",
          "name": "approved",
          "type": "address"
        },
        {
          "indexed": true,
          "internalType": "uint256",
          "name": "tokenId",
          "type": "uint256"
        }
      ],
      "name": "Approval",
      "type": "event"
    },
    {
      "anonymous": false,
      "inputs": [
        {
          "indexed": true,
          "internalType": "address",
          "name": "owner",
          "type": "address"
        },
        {
          "indexed": true,
          "internalType": "address",
          "name": "operator",
          "type": "address"
        },
        {
          "indexed": false,
          "internalType": "bool",
          "name": "approved",
          "type": "bool"
        }
      ],
      "name": "ApprovalForAll",
      "type": "event"
    },
    {
      "anonymous": false,
      "inputs": [
        {
          "indexed": true,
          "internalType": "address",
          "name": "previousOwner",
          "type": "address"
        },
        {
          "indexed": true,
          "internalType": "address",
          "name": "newOwner",
          "type": "address"
        }
      ],
      "name": "OwnershipTransferred",
      "type": "event"
    },
    {
      "anonymous": false,
      "inputs": [
        {
          "indexed": true,
          "internalType": "address",
          "name": "from",
          "type": "address"
        },
        {
          "indexed": true,
          "internalType": "address",
          "name": "to",
          "type": "address"
        },
        {
          "indexed": true,
          "internalType": "uint256",
          "name": "tokenId",
          "type": "uint256"
        }
      ],
      "name": "Transfer",
      "type": "event"
    },
    {
      "anonymous": false,
      "inputs": [
        {
          "indexed": false,
          "internalType": "uint256",
          "name": "tokenId",
          "type": "uint256"
        },
        {
          "indexed": false,
          "internalType": "string",
          "name": "activity",
          "type": "string"
        },
        {
          "indexed": false,
          "internalType": "address",
          "name": "callee",
          "type": "address"
        }
      ],
      "name": "activityOnTokenCalled",
      "type": "event"
    },
    {
      "inputs": [
        {
          "internalType": "address",
          "name": "to",
          "type": "address"
        },
        {
          "internalType": "uint256",
          "name": "tokenId",
          "type": "uint256"
        }
      ],
      "name": "approve",
      "outputs": [],
      "stateMutability": "nonpayable",
      "type": "function"
    },
    {
      "inputs": [
        {
          "internalType": "uint256",
          "name": "tokenId",
          "type": "uint256"
        },
        {
          "internalType": "string",
          "name": "activity",
          "type": "string"
        }
      ],
      "name": "availService",
      "outputs": [],
      "stateMutability": "nonpayable",
      "type": "function"
    },
    {
      "inputs": [
        {
          "internalType": "address",
          "name": "owner",
          "type": "address"
        }
      ],
      "name": "balanceOf",
      "outputs": [
        {
          "internalType": "uint256",
          "name": "",
          "type": "uint256"
        }
      ],
      "stateMutability": "view",
      "type": "function"
    },
    {
      "inputs": [
        {
          "internalType": "string",
          "name": "tokenURI",
          "type": "string"
        },
        {
          "internalType": "uint256",
          "name": "numberOfDays",
          "type": "uint256"
        }
      ],
      "name": "createWarranty",
      "outputs": [
        {
          "internalType": "uint256",
          "name": "",
          "type": "uint256"
        }
      ],
      "stateMutability": "nonpayable",
      "type": "function"
    },
    {
      "inputs": [
        {
          "internalType": "uint256",
          "name": "tokenId",
          "type": "uint256"
        }
      ],
      "name": "getApproved",
      "outputs": [
        {
          "internalType": "address",
          "name": "",
          "type": "address"
        }
      ],
      "stateMutability": "view",
      "type": "function"
    },
    {
      "inputs": [
        {
          "internalType": "uint256",
          "name": "tokenId",
          "type": "uint256"
        }
      ],
      "name": "getOwner",
      "outputs": [
        {
          "internalType": "address",
          "name": "",
          "type": "address"
        }
      ],
      "stateMutability": "view",
      "type": "function"
    },
    {
      "inputs": [
        {
          "internalType": "uint256",
          "name": "tokenId",
          "type": "uint256"
        }
      ],
      "name": "getURI",
      "outputs": [
        {
          "internalType": "string",
          "name": "",
          "type": "string"
        }
      ],
      "stateMutability": "view",
      "type": "function"
    },
    {
      "inputs": [
        {
          "internalType": "address",
          "name": "owner",
          "type": "address"
        },
        {
          "internalType": "address",
          "name": "operator",
          "type": "address"
        }
      ],
      "name": "isApprovedForAll",
      "outputs": [
        {
          "internalType": "bool",
          "name": "",
          "type": "bool"
        }
      ],
      "stateMutability": "view",
      "type": "function"
    },
    {
      "inputs": [],
      "name": "name",
      "outputs": [
        {
          "internalType": "string",
          "name": "",
          "type": "string"
        }
      ],
      "stateMutability": "view",
      "type": "function"
    },
    {
      "inputs": [
        {
          "internalType": "address",
          "name": "nominateAddress",
          "type": "address"
        }
      ],
      "name": "nominate",
      "outputs": [],
      "stateMutability": "nonpayable",
      "type": "function"
    },
    {
      "inputs": [],
      "name": "owner",
      "outputs": [
        {
          "internalType": "address",
          "name": "",
          "type": "address"
        }
      ],
      "stateMutability": "view",
      "type": "function"
    },
    {
      "inputs": [
        {
          "internalType": "uint256",
          "name": "tokenId",
          "type": "uint256"
        }
      ],
      "name": "ownerOf",
      "outputs": [
        {
          "internalType": "address",
          "name": "",
          "type": "address"
        }
      ],
      "stateMutability": "view",
      "type": "function"
    },
    {
      "inputs": [
        {
          "internalType": "uint256",
          "name": "tokenId",
          "type": "uint256"
        }
      ],
      "name": "proveOwnership",
      "outputs": [
        {
          "internalType": "bool",
          "name": "",
          "type": "bool"
        }
      ],
      "stateMutability": "view",
      "type": "function"
    },
    {
      "inputs": [],
      "name": "renounceOwnership",
      "outputs": [],
      "stateMutability": "nonpayable",
      "type": "function"
    },
    {
      "inputs": [
        {
          "internalType": "address",
          "name": "from",
          "type": "address"
        },
        {
          "internalType": "address",
          "name": "to",
          "type": "address"
        },
        {
          "internalType": "uint256",
          "name": "tokenId",
          "type": "uint256"
        }
      ],
      "name": "safeTransferFrom",
      "outputs": [],
      "stateMutability": "nonpayable",
      "type": "function"
    },
    {
      "inputs": [
        {
          "internalType": "address",
          "name": "from",
          "type": "address"
        },
        {
          "internalType": "address",
          "name": "to",
          "type": "address"
        },
        {
          "internalType": "uint256",
          "name": "tokenId",
          "type": "uint256"
        },
        {
          "internalType": "bytes",
          "name": "data",
          "type": "bytes"
        }
      ],
      "name": "safeTransferFrom",
      "outputs": [],
      "stateMutability": "nonpayable",
      "type": "function"
    },
    {
      "inputs": [
        {
          "internalType": "address",
          "name": "operator",
          "type": "address"
        },
        {
          "internalType": "bool",
          "name": "approved",
          "type": "bool"
        }
      ],
      "name": "setApprovalForAll",
      "outputs": [],
      "stateMutability": "nonpayable",
      "type": "function"
    },
    {
      "inputs": [
        {
          "internalType": "bytes4",
          "name": "interfaceId",
          "type": "bytes4"
        }
      ],
      "name": "supportsInterface",
      "outputs": [
        {
          "internalType": "bool",
          "name": "",
          "type": "bool"
        }
      ],
      "stateMutability": "view",
      "type": "function"
    },
    {
      "inputs": [],
      "name": "symbol",
      "outputs": [
        {
          "internalType": "string",
          "name": "",
          "type": "string"
        }
      ],
      "stateMutability": "view",
      "type": "function"
    },
    {
      "inputs": [],
      "name": "tokenCounter",
      "outputs": [
        {
          "internalType": "uint256",
          "name": "",
          "type": "uint256"
        }
      ],
      "stateMutability": "view",
      "type": "function"
    },
    {
      "inputs": [
        {
          "internalType": "uint256",
          "name": "tokenId",
          "type": "uint256"
        }
      ],
      "name": "tokenURI",
      "outputs": [
        {
          "internalType": "string",
          "name": "",
          "type": "string"
        }
      ],
      "stateMutability": "view",
      "type": "function"
    },
    {
      "inputs": [
        {
          "internalType": "address",
          "name": "to",
          "type": "address"
        },
        {
          "internalType": "uint256",
          "name": "tokenId",
          "type": "uint256"
        }
      ],
      "name": "transfer",
      "outputs": [],
      "stateMutability": "nonpayable",
      "type": "function"
    },
    {
      "inputs": [
        {
          "internalType": "address",
          "name": "from",
          "type": "address"
        },
        {
          "internalType": "address",
          "name": "to",
          "type": "address"
        },
        {
          "internalType": "uint256",
          "name": "tokenId",
          "type": "uint256"
        }
      ],
      "name": "transferFrom",
      "outputs": [],
      "stateMutability": "nonpayable",
      "type": "function"
    },
    {
      "inputs": [
        {
          "internalType": "address",
          "name": "newOwner",
          "type": "address"
        }
      ],
      "name": "transferOwnership",
      "outputs": [],
      "stateMutability": "nonpayable",
      "type": "function"
    }
  ],
  "bytecode": "0x60806040523480156200001157600080fd5b506040518060400160405280600a81526020017f652d57617272616e7479000000000000000000000000000000000000000000008152506040518060400160405280600681526020017f652d574e46540000000000000000000000000000000000000000000000000000815250816000908051906020019062000096929190620001ae565b508060019080519060200190620000af929190620001ae565b505050620000d2620000c6620000e060201b60201c565b620000e860201b60201c565b6000600881905550620002c3565b600033905090565b6000600760009054906101000a900473ffffffffffffffffffffffffffffffffffffffff16905081600760006101000a81548173ffffffffffffffffffffffffffffffffffffffff021916908373ffffffffffffffffffffffffffffffffffffffff1602179055508173ffffffffffffffffffffffffffffffffffffffff168173ffffffffffffffffffffffffffffffffffffffff167f8be0079c531659141344cd1fd0a4f28419497f9722a3daafe3b4186f6b6457e060405160405180910390a35050565b828054620001bc906200028d565b90600052602060002090601f016020900481019282620001e057600085556200022c565b82601f10620001fb57805160ff19168380011785556200022c565b828001600101855582156200022c579182015b828111156200022b5782518255916020019190600101906200020e565b5b5090506200023b91906200023f565b5090565b5b808211156200025a57600081600090555060010162000240565b5090565b7f4e487b7100000000000000000000000000000000000000000000000000000000600052602260045260246000fd5b60006002820490506001821680620002a657607f821691505b60208210811415620002bd57620002bc6200025e565b5b50919050565b61353d80620002d36000396000f3fe608060405234801561001057600080fd5b50600436106101585760003560e01c806395d89b41116100c3578063c41a360a1161007c578063c41a360a146103c1578063c87b56dd146103f1578063d082e38114610421578063e83627fa1461043f578063e985e9c51461046f578063f2fde38b1461049f57610158565b806395d89b4114610303578063a22cb46514610321578063a9059cbb1461033d578063ae30d69b14610359578063b332180b14610389578063b88d4fde146103a557610158565b8063319da29b11610115578063319da29b1461024357806342842e0e1461025f5780636352211e1461027b57806370a08231146102ab578063715018a6146102db5780638da5cb5b146102e557610158565b806301ffc9a71461015d57806306fdde031461018d578063081812fc146101ab578063095ea7b3146101db5780631aa347dc146101f757806323b872dd14610227575b600080fd5b610177600480360381019061017291906120a1565b6104bb565b60405161018491906120e9565b60405180910390f35b61019561059d565b6040516101a2919061219d565b60405180910390f35b6101c560048036038101906101c091906121f5565b61062f565b6040516101d29190612263565b60405180910390f35b6101f560048036038101906101f091906122aa565b610675565b005b610211600480360381019061020c91906121f5565b61078d565b60405161021e919061219d565b60405180910390f35b610241600480360381019061023c91906122ea565b61079f565b005b61025d60048036038101906102589190612472565b6107ff565b005b610279600480360381019061027491906122ea565b6108b6565b005b610295600480360381019061029091906121f5565b6108d6565b6040516102a29190612263565b60405180910390f35b6102c560048036038101906102c091906124ce565b610988565b6040516102d2919061250a565b60405180910390f35b6102e3610a40565b005b6102ed610a54565b6040516102fa9190612263565b60405180910390f35b61030b610a7e565b604051610318919061219d565b60405180910390f35b61033b60048036038101906103369190612551565b610b10565b005b610357600480360381019061035291906122aa565b610b26565b005b610373600480360381019061036e9190612591565b610bc4565b604051610380919061250a565b60405180910390f35b6103a3600480360381019061039e91906124ce565b610d33565b005b6103bf60048036038101906103ba919061268e565b610e57565b005b6103db60048036038101906103d691906121f5565b610eb9565b6040516103e89190612263565b60405180910390f35b61040b600480360381019061040691906121f5565b610ecb565b604051610418919061219d565b60405180910390f35b610429610fde565b604051610436919061250a565b60405180910390f35b610459600480360381019061045491906121f5565b610fe4565b60405161046691906120e9565b60405180910390f35b61048960048036038101906104849190612711565b611024565b60405161049691906120e9565b60405180910390f35b6104b960048036038101906104b491906124ce565b6110b8565b005b60007f80ac58cd000000000000000000000000000000000000000000000000000000007bffffffffffffffffffffffffffffffffffffffffffffffffffffffff1916827bffffffffffffffffffffffffffffffffffffffffffffffffffffffff1916148061058657507f5b5e139f000000000000000000000000000000000000000000000000000000007bffffffffffffffffffffffffffffffffffffffffffffffffffffffff1916827bffffffffffffffffffffffffffffffffffffffffffffffffffffffff1916145b8061059657506105958261113c565b5b9050919050565b6060600080546105ac90612780565b80601f01602080910402602001604051908101604052809291908181526020018280546105d890612780565b80156106255780601f106105fa57610100808354040283529160200191610625565b820191906000526020600020905b81548152906001019060200180831161060857829003601f168201915b5050505050905090565b600061063a826111a6565b6004600083815260200190815260200160002060009054906101000a900473ffffffffffffffffffffffffffffffffffffffff169050919050565b6000610680826108d6565b90508073ffffffffffffffffffffffffffffffffffffffff168373ffffffffffffffffffffffffffffffffffffffff1614156106f1576040517f08c379a00000000000000000000000000000000000000000000000000000000081526004016106e890612824565b60405180910390fd5b8073ffffffffffffffffffffffffffffffffffffffff166107106111f1565b73ffffffffffffffffffffffffffffffffffffffff16148061073f575061073e816107396111f1565b611024565b5b61077e576040517f08c379a0000000000000000000000000000000000000000000000000000000008152600401610775906128b6565b60405180910390fd5b61078883836111f9565b505050565b606061079882610ecb565b9050919050565b6107b06107aa6111f1565b826112b2565b6107ef576040517f08c379a00000000000000000000000000000000000000000000000000000000081526004016107e690612948565b60405180910390fd5b6107fa838383611347565b505050565b8161080981610eb9565b73ffffffffffffffffffffffffffffffffffffffff163373ffffffffffffffffffffffffffffffffffffffff1614610876576040517f08c379a000000000000000000000000000000000000000000000000000000000815260040161086d906129b4565b60405180910390fd5b7f0f51a7191c13867a3b27e41f94bd5c2175b01efebc5dfbd6540f1d86ac4eb0898383336040516108a9939291906129d4565b60405180910390a1505050565b6108d183838360405180602001604052806000815250610e57565b505050565b6000806002600084815260200190815260200160002060009054906101000a900473ffffffffffffffffffffffffffffffffffffffff169050600073ffffffffffffffffffffffffffffffffffffffff168173ffffffffffffffffffffffffffffffffffffffff16141561097f576040517f08c379a000000000000000000000000000000000000000000000000000000000815260040161097690612a5e565b60405180910390fd5b80915050919050565b60008073ffffffffffffffffffffffffffffffffffffffff168273ffffffffffffffffffffffffffffffffffffffff1614156109f9576040517f08c379a00000000000000000000000000000000000000000000000000000000081526004016109f090612af0565b60405180910390fd5b600360008373ffffffffffffffffffffffffffffffffffffffff1673ffffffffffffffffffffffffffffffffffffffff168152602001908152602001600020549050919050565b610a486115ae565b610a52600061162c565b565b6000600760009054906101000a900473ffffffffffffffffffffffffffffffffffffffff16905090565b606060018054610a8d90612780565b80601f0160208091040260200160405190810160405280929190818152602001828054610ab990612780565b8015610b065780601f10610adb57610100808354040283529160200191610b06565b820191906000526020600020905b815481529060010190602001808311610ae957829003601f168201915b5050505050905090565b610b22610b1b6111f1565b83836116f2565b5050565b600a600082815260200190815260200160002054421115610b7c576040517f08c379a0000000000000000000000000000000000000000000000000000000008152600401610b7390612b5c565b60405180910390fd5b610b873383836108b6565b7f0f51a7191c13867a3b27e41f94bd5c2175b01efebc5dfbd6540f1d86ac4eb0898133604051610bb8929190612bc8565b60405180910390a15050565b6000610bce610a54565b73ffffffffffffffffffffffffffffffffffffffff163373ffffffffffffffffffffffffffffffffffffffff161480610c505750600960003373ffffffffffffffffffffffffffffffffffffffff1673ffffffffffffffffffffffffffffffffffffffff16815260200190815260200160002060009054906101000a900460ff165b610c8f576040517f08c379a0000000000000000000000000000000000000000000000000000000008152600401610c8690612c76565b60405180910390fd5b60006008549050610ca0338261185f565b610caa818561187d565b6001600854610cb99190612cc5565b6008819055507f0f51a7191c13867a3b27e41f94bd5c2175b01efebc5dfbd6540f1d86ac4eb0898133604051610cf0929190612d67565b60405180910390a16201518083610d079190612da3565b42610d129190612cc5565b600a6000838152602001908152602001600020819055508091505092915050565b610d3b610a54565b73ffffffffffffffffffffffffffffffffffffffff163373ffffffffffffffffffffffffffffffffffffffff161480610dbd5750600960003373ffffffffffffffffffffffffffffffffffffffff1673ffffffffffffffffffffffffffffffffffffffff16815260200190815260200160002060009054906101000a900460ff165b610dfc576040517f08c379a0000000000000000000000000000000000000000000000000000000008152600401610df390612c76565b60405180910390fd5b6001600960008373ffffffffffffffffffffffffffffffffffffffff1673ffffffffffffffffffffffffffffffffffffffff16815260200190815260200160002060006101000a81548160ff02191690831515021790555050565b610e68610e626111f1565b836112b2565b610ea7576040517f08c379a0000000000000000000000000000000000000000000000000000000008152600401610e9e90612948565b60405180910390fd5b610eb3848484846118f1565b50505050565b6000610ec4826108d6565b9050919050565b6060610ed6826111a6565b6000600660008481526020019081526020016000208054610ef690612780565b80601f0160208091040260200160405190810160405280929190818152602001828054610f2290612780565b8015610f6f5780601f10610f4457610100808354040283529160200191610f6f565b820191906000526020600020905b815481529060010190602001808311610f5257829003601f168201915b505050505090506000610f8061194d565b9050600081511415610f96578192505050610fd9565b600082511115610fcb578082604051602001610fb3929190612e39565b60405160208183030381529060405292505050610fd9565b610fd484611964565b925050505b919050565b60085481565b6000610fef82610eb9565b73ffffffffffffffffffffffffffffffffffffffff163373ffffffffffffffffffffffffffffffffffffffff16149050919050565b6000600560008473ffffffffffffffffffffffffffffffffffffffff1673ffffffffffffffffffffffffffffffffffffffff16815260200190815260200160002060008373ffffffffffffffffffffffffffffffffffffffff1673ffffffffffffffffffffffffffffffffffffffff16815260200190815260200160002060009054906101000a900460ff16905092915050565b6110c06115ae565b600073ffffffffffffffffffffffffffffffffffffffff168173ffffffffffffffffffffffffffffffffffffffff161415611130576040517f08c379a000000000000000000000000000000000000000000000000000000000815260040161112790612ecf565b60405180910390fd5b6111398161162c565b50565b60007f01ffc9a7000000000000000000000000000000000000000000000000000000007bffffffffffffffffffffffffffffffffffffffffffffffffffffffff1916827bffffffffffffffffffffffffffffffffffffffffffffffffffffffff1916149050919050565b6111af816119cc565b6111ee576040517f08c379a00000000000000000000000000000000000000000000000000000000081526004016111e590612a5e565b60405180910390fd5b50565b600033905090565b816004600083815260200190815260200160002060006101000a81548173ffffffffffffffffffffffffffffffffffffffff021916908373ffffffffffffffffffffffffffffffffffffffff160217905550808273ffffffffffffffffffffffffffffffffffffffff1661126c836108d6565b73ffffffffffffffffffffffffffffffffffffffff167f8c5be1e5ebec7d5bd14f71427d1e84f3dd0314c0f7b2291e5b200ac8c7c3b92560405160405180910390a45050565b6000806112be836108d6565b90508073ffffffffffffffffffffffffffffffffffffffff168473ffffffffffffffffffffffffffffffffffffffff16148061130057506112ff8185611024565b5b8061133e57508373ffffffffffffffffffffffffffffffffffffffff166113268461062f565b73ffffffffffffffffffffffffffffffffffffffff16145b91505092915050565b8273ffffffffffffffffffffffffffffffffffffffff16611367826108d6565b73ffffffffffffffffffffffffffffffffffffffff16146113bd576040517f08c379a00000000000000000000000000000000000000000000000000000000081526004016113b490612f61565b60405180910390fd5b600073ffffffffffffffffffffffffffffffffffffffff168273ffffffffffffffffffffffffffffffffffffffff16141561142d576040517f08c379a000000000000000000000000000000000000000000000000000000000815260040161142490612ff3565b60405180910390fd5b611438838383611a38565b6114436000826111f9565b6001600360008573ffffffffffffffffffffffffffffffffffffffff1673ffffffffffffffffffffffffffffffffffffffff16815260200190815260200160002060008282546114939190613013565b925050819055506001600360008473ffffffffffffffffffffffffffffffffffffffff1673ffffffffffffffffffffffffffffffffffffffff16815260200190815260200160002060008282546114ea9190612cc5565b92505081905550816002600083815260200190815260200160002060006101000a81548173ffffffffffffffffffffffffffffffffffffffff021916908373ffffffffffffffffffffffffffffffffffffffff160217905550808273ffffffffffffffffffffffffffffffffffffffff168473ffffffffffffffffffffffffffffffffffffffff167fddf252ad1be2c89b69c2b068fc378daa952ba7f163c4a11628f55a4df523b3ef60405160405180910390a46115a9838383611a3d565b505050565b6115b66111f1565b73ffffffffffffffffffffffffffffffffffffffff166115d4610a54565b73ffffffffffffffffffffffffffffffffffffffff161461162a576040517f08c379a000000000000000000000000000000000000000000000000000000000815260040161162190613093565b60405180910390fd5b565b6000600760009054906101000a900473ffffffffffffffffffffffffffffffffffffffff16905081600760006101000a81548173ffffffffffffffffffffffffffffffffffffffff021916908373ffffffffffffffffffffffffffffffffffffffff1602179055508173ffffffffffffffffffffffffffffffffffffffff168173ffffffffffffffffffffffffffffffffffffffff167f8be0079c531659141344cd1fd0a4f28419497f9722a3daafe3b4186f6b6457e060405160405180910390a35050565b8173ffffffffffffffffffffffffffffffffffffffff168373ffffffffffffffffffffffffffffffffffffffff161415611761576040517f08c379a0000000000000000000000000000000000000000000000000000000008152600401611758906130ff565b60405180910390fd5b80600560008573ffffffffffffffffffffffffffffffffffffffff1673ffffffffffffffffffffffffffffffffffffffff16815260200190815260200160002060008473ffffffffffffffffffffffffffffffffffffffff1673ffffffffffffffffffffffffffffffffffffffff16815260200190815260200160002060006101000a81548160ff0219169083151502179055508173ffffffffffffffffffffffffffffffffffffffff168373ffffffffffffffffffffffffffffffffffffffff167f17307eab39ab6107e8899845ad3d59bd9653f200f220920489ca2b5937696c318360405161185291906120e9565b60405180910390a3505050565b611879828260405180602001604052806000815250611a42565b5050565b611886826119cc565b6118c5576040517f08c379a00000000000000000000000000000000000000000000000000000000081526004016118bc90613191565b60405180910390fd5b806006600084815260200190815260200160002090805190602001906118ec929190611f92565b505050565b6118fc848484611347565b61190884848484611a9d565b611947576040517f08c379a000000000000000000000000000000000000000000000000000000000815260040161193e90613223565b60405180910390fd5b50505050565b606060405180602001604052806000815250905090565b606061196f826111a6565b600061197961194d565b9050600081511161199957604051806020016040528060008152506119c4565b806119a384611c34565b6040516020016119b4929190612e39565b6040516020818303038152906040525b915050919050565b60008073ffffffffffffffffffffffffffffffffffffffff166002600084815260200190815260200160002060009054906101000a900473ffffffffffffffffffffffffffffffffffffffff1673ffffffffffffffffffffffffffffffffffffffff1614159050919050565b505050565b505050565b611a4c8383611d95565b611a596000848484611a9d565b611a98576040517f08c379a0000000000000000000000000000000000000000000000000000000008152600401611a8f90613223565b60405180910390fd5b505050565b6000611abe8473ffffffffffffffffffffffffffffffffffffffff16611f6f565b15611c27578373ffffffffffffffffffffffffffffffffffffffff1663150b7a02611ae76111f1565b8786866040518563ffffffff1660e01b8152600401611b099493929190613298565b602060405180830381600087803b158015611b2357600080fd5b505af1925050508015611b5457506040513d601f19601f82011682018060405250810190611b5191906132f9565b60015b611bd7573d8060008114611b84576040519150601f19603f3d011682016040523d82523d6000602084013e611b89565b606091505b50600081511415611bcf576040517f08c379a0000000000000000000000000000000000000000000000000000000008152600401611bc690613223565b60405180910390fd5b805181602001fd5b63150b7a0260e01b7bffffffffffffffffffffffffffffffffffffffffffffffffffffffff1916817bffffffffffffffffffffffffffffffffffffffffffffffffffffffff191614915050611c2c565b600190505b949350505050565b60606000821415611c7c576040518060400160405280600181526020017f30000000000000000000000000000000000000000000000000000000000000008152509050611d90565b600082905060005b60008214611cae578080611c9790613326565b915050600a82611ca7919061339e565b9150611c84565b60008167ffffffffffffffff811115611cca57611cc9612347565b5b6040519080825280601f01601f191660200182016040528015611cfc5781602001600182028036833780820191505090505b5090505b60008514611d8957600182611d159190613013565b9150600a85611d2491906133cf565b6030611d309190612cc5565b60f81b818381518110611d4657611d45613400565b5b60200101907effffffffffffffffffffffffffffffffffffffffffffffffffffffffffffff1916908160001a905350600a85611d82919061339e565b9450611d00565b8093505050505b919050565b600073ffffffffffffffffffffffffffffffffffffffff168273ffffffffffffffffffffffffffffffffffffffff161415611e05576040517f08c379a0000000000000000000000000000000000000000000000000000000008152600401611dfc9061347b565b60405180910390fd5b611e0e816119cc565b15611e4e576040517f08c379a0000000000000000000000000000000000000000000000000000000008152600401611e45906134e7565b60405180910390fd5b611e5a60008383611a38565b6001600360008473ffffffffffffffffffffffffffffffffffffffff1673ffffffffffffffffffffffffffffffffffffffff1681526020019081526020016000206000828254611eaa9190612cc5565b92505081905550816002600083815260200190815260200160002060006101000a81548173ffffffffffffffffffffffffffffffffffffffff021916908373ffffffffffffffffffffffffffffffffffffffff160217905550808273ffffffffffffffffffffffffffffffffffffffff16600073ffffffffffffffffffffffffffffffffffffffff167fddf252ad1be2c89b69c2b068fc378daa952ba7f163c4a11628f55a4df523b3ef60405160405180910390a4611f6b60008383611a3d565b5050565b6000808273ffffffffffffffffffffffffffffffffffffffff163b119050919050565b828054611f9e90612780565b90600052602060002090601f016020900481019282611fc05760008555612007565b82601f10611fd957805160ff1916838001178555612007565b82800160010185558215612007579182015b82811115612006578251825591602001919060010190611feb565b5b5090506120149190612018565b5090565b5b80821115612031576000816000905550600101612019565b5090565b6000604051905090565b600080fd5b600080fd5b60007fffffffff0000000000000000000000000000000000000000000000000000000082169050919050565b61207e81612049565b811461208957600080fd5b50565b60008135905061209b81612075565b92915050565b6000602082840312156120b7576120b661203f565b5b60006120c58482850161208c565b91505092915050565b60008115159050919050565b6120e3816120ce565b82525050565b60006020820190506120fe60008301846120da565b92915050565b600081519050919050565b600082825260208201905092915050565b60005b8381101561213e578082015181840152602081019050612123565b8381111561214d576000848401525b50505050565b6000601f19601f8301169050919050565b600061216f82612104565b612179818561210f565b9350612189818560208601612120565b61219281612153565b840191505092915050565b600060208201905081810360008301526121b78184612164565b905092915050565b6000819050919050565b6121d2816121bf565b81146121dd57600080fd5b50565b6000813590506121ef816121c9565b92915050565b60006020828403121561220b5761220a61203f565b5b6000612219848285016121e0565b91505092915050565b600073ffffffffffffffffffffffffffffffffffffffff82169050919050565b600061224d82612222565b9050919050565b61225d81612242565b82525050565b60006020820190506122786000830184612254565b92915050565b61228781612242565b811461229257600080fd5b50565b6000813590506122a48161227e565b92915050565b600080604083850312156122c1576122c061203f565b5b60006122cf85828601612295565b92505060206122e0858286016121e0565b9150509250929050565b6000806000606084860312156123035761230261203f565b5b600061231186828701612295565b935050602061232286828701612295565b9250506040612333868287016121e0565b9150509250925092565b600080fd5b600080fd5b7f4e487b7100000000000000000000000000000000000000000000000000000000600052604160045260246000fd5b61237f82612153565b810181811067ffffffffffffffff8211171561239e5761239d612347565b5b80604052505050565b60006123b1612035565b90506123bd8282612376565b919050565b600067ffffffffffffffff8211156123dd576123dc612347565b5b6123e682612153565b9050602081019050919050565b82818337600083830152505050565b6000612415612410846123c2565b6123a7565b90508281526020810184848401111561243157612430612342565b5b61243c8482856123f3565b509392505050565b600082601f8301126124595761245861233d565b5b8135612469848260208601612402565b91505092915050565b600080604083850312156124895761248861203f565b5b6000612497858286016121e0565b925050602083013567ffffffffffffffff8111156124b8576124b7612044565b5b6124c485828601612444565b9150509250929050565b6000602082840312156124e4576124e361203f565b5b60006124f284828501612295565b91505092915050565b612504816121bf565b82525050565b600060208201905061251f60008301846124fb565b92915050565b61252e816120ce565b811461253957600080fd5b50565b60008135905061254b81612525565b92915050565b600080604083850312156125685761256761203f565b5b600061257685828601612295565b92505060206125878582860161253c565b9150509250929050565b600080604083850312156125a8576125a761203f565b5b600083013567ffffffffffffffff8111156125c6576125c5612044565b5b6125d285828601612444565b92505060206125e3858286016121e0565b9150509250929050565b600067ffffffffffffffff82111561260857612607612347565b5b61261182612153565b9050602081019050919050565b600061263161262c846125ed565b6123a7565b90508281526020810184848401111561264d5761264c612342565b5b6126588482856123f3565b509392505050565b600082601f8301126126755761267461233d565b5b813561268584826020860161261e565b91505092915050565b600080600080608085870312156126a8576126a761203f565b5b60006126b687828801612295565b94505060206126c787828801612295565b93505060406126d8878288016121e0565b925050606085013567ffffffffffffffff8111156126f9576126f8612044565b5b61270587828801612660565b91505092959194509250565b600080604083850312156127285761272761203f565b5b600061273685828601612295565b925050602061274785828601612295565b9150509250929050565b7f4e487b7100000000000000000000000000000000000000000000000000000000600052602260045260246000fd5b6000600282049050600182168061279857607f821691505b602082108114156127ac576127ab612751565b5b50919050565b7f4552433732313a20617070726f76616c20746f2063757272656e74206f776e6560008201527f7200000000000000000000000000000000000000000000000000000000000000602082015250565b600061280e60218361210f565b9150612819826127b2565b604082019050919050565b6000602082019050818103600083015261283d81612801565b9050919050565b7f4552433732313a20617070726f76652063616c6c6572206973206e6f7420746f60008201527f6b656e206f776e6572206e6f7220617070726f76656420666f7220616c6c0000602082015250565b60006128a0603e8361210f565b91506128ab82612844565b604082019050919050565b600060208201905081810360008301526128cf81612893565b9050919050565b7f4552433732313a2063616c6c6572206973206e6f7420746f6b656e206f776e6560008201527f72206e6f7220617070726f766564000000000000000000000000000000000000602082015250565b6000612932602e8361210f565b915061293d826128d6565b604082019050919050565b6000602082019050818103600083015261296181612925565b9050919050565b7f43616c6c6572206973206e6f74206f776e6572206f6620652d574e4654000000600082015250565b600061299e601d8361210f565b91506129a982612968565b602082019050919050565b600060208201905081810360008301526129cd81612991565b9050919050565b60006060820190506129e960008301866124fb565b81810360208301526129fb8185612164565b9050612a0a6040830184612254565b949350505050565b7f4552433732313a20696e76616c696420746f6b656e2049440000000000000000600082015250565b6000612a4860188361210f565b9150612a5382612a12565b602082019050919050565b60006020820190508181036000830152612a7781612a3b565b9050919050565b7f4552433732313a2061646472657373207a65726f206973206e6f74206120766160008201527f6c6964206f776e65720000000000000000000000000000000000000000000000602082015250565b6000612ada60298361210f565b9150612ae582612a7e565b604082019050919050565b60006020820190508181036000830152612b0981612acd565b9050919050565b7f652d574e46542068617320657870697265642100000000000000000000000000600082015250565b6000612b4660138361210f565b9150612b5182612b10565b602082019050919050565b60006020820190508181036000830152612b7581612b39565b9050919050565b7f5452414e53464552000000000000000000000000000000000000000000000000600082015250565b6000612bb260088361210f565b9150612bbd82612b7c565b602082019050919050565b6000606082019050612bdd60008301856124fb565b8181036020830152612bee81612ba5565b9050612bfd6040830184612254565b9392505050565b7f43616c6c6572206973206e656974686572206f776e6572206e6f72206e6f6d6960008201527f6e61746564000000000000000000000000000000000000000000000000000000602082015250565b6000612c6060258361210f565b9150612c6b82612c04565b604082019050919050565b60006020820190508181036000830152612c8f81612c53565b9050919050565b7f4e487b7100000000000000000000000000000000000000000000000000000000600052601160045260246000fd5b6000612cd0826121bf565b9150612cdb836121bf565b9250827fffffffffffffffffffffffffffffffffffffffffffffffffffffffffffffffff03821115612d1057612d0f612c96565b5b828201905092915050565b7f4352454154450000000000000000000000000000000000000000000000000000600082015250565b6000612d5160068361210f565b9150612d5c82612d1b565b602082019050919050565b6000606082019050612d7c60008301856124fb565b8181036020830152612d8d81612d44565b9050612d9c6040830184612254565b9392505050565b6000612dae826121bf565b9150612db9836121bf565b9250817fffffffffffffffffffffffffffffffffffffffffffffffffffffffffffffffff0483118215151615612df257612df1612c96565b5b828202905092915050565b600081905092915050565b6000612e1382612104565b612e1d8185612dfd565b9350612e2d818560208601612120565b80840191505092915050565b6000612e458285612e08565b9150612e518284612e08565b91508190509392505050565b7f4f776e61626c653a206e6577206f776e657220697320746865207a65726f206160008201527f6464726573730000000000000000000000000000000000000000000000000000602082015250565b6000612eb960268361210f565b9150612ec482612e5d565b604082019050919050565b60006020820190508181036000830152612ee881612eac565b9050919050565b7f4552433732313a207472616e736665722066726f6d20696e636f72726563742060008201527f6f776e6572000000000000000000000000000000000000000000000000000000602082015250565b6000612f4b60258361210f565b9150612f5682612eef565b604082019050919050565b60006020820190508181036000830152612f7a81612f3e565b9050919050565b7f4552433732313a207472616e7366657220746f20746865207a65726f2061646460008201527f7265737300000000000000000000000000000000000000000000000000000000602082015250565b6000612fdd60248361210f565b9150612fe882612f81565b604082019050919050565b6000602082019050818103600083015261300c81612fd0565b9050919050565b600061301e826121bf565b9150613029836121bf565b92508282101561303c5761303b612c96565b5b828203905092915050565b7f4f776e61626c653a2063616c6c6572206973206e6f7420746865206f776e6572600082015250565b600061307d60208361210f565b915061308882613047565b602082019050919050565b600060208201905081810360008301526130ac81613070565b9050919050565b7f4552433732313a20617070726f766520746f2063616c6c657200000000000000600082015250565b60006130e960198361210f565b91506130f4826130b3565b602082019050919050565b60006020820190508181036000830152613118816130dc565b9050919050565b7f45524337323155524953746f726167653a2055524920736574206f66206e6f6e60008201527f6578697374656e7420746f6b656e000000000000000000000000000000000000602082015250565b600061317b602e8361210f565b91506131868261311f565b604082019050919050565b600060208201905081810360008301526131aa8161316e565b9050919050565b7f4552433732313a207472616e7366657220746f206e6f6e20455243373231526560008201527f63656976657220696d706c656d656e7465720000000000000000000000000000602082015250565b600061320d60328361210f565b9150613218826131b1565b604082019050919050565b6000602082019050818103600083015261323c81613200565b9050919050565b600081519050919050565b600082825260208201905092915050565b600061326a82613243565b613274818561324e565b9350613284818560208601612120565b61328d81612153565b840191505092915050565b60006080820190506132ad6000830187612254565b6132ba6020830186612254565b6132c760408301856124fb565b81810360608301526132d9818461325f565b905095945050505050565b6000815190506132f381612075565b92915050565b60006020828403121561330f5761330e61203f565b5b600061331d848285016132e4565b91505092915050565b6000613331826121bf565b91507fffffffffffffffffffffffffffffffffffffffffffffffffffffffffffffffff82141561336457613363612c96565b5b600182019050919050565b7f4e487b7100000000000000000000000000000000000000000000000000000000600052601260045260246000fd5b60006133a9826121bf565b91506133b4836121bf565b9250826133c4576133c361336f565b5b828204905092915050565b60006133da826121bf565b91506133e5836121bf565b9250826133f5576133f461336f565b5b828206905092915050565b7f4e487b7100000000000000000000000000000000000000000000000000000000600052603260045260246000fd5b7f4552433732313a206d696e7420746f20746865207a65726f2061646472657373600082015250565b600061346560208361210f565b91506134708261342f565b602082019050919050565b6000602082019050818103600083015261349481613458565b9050919050565b7f4552433732313a20746f6b656e20616c7265616479206d696e74656400000000600082015250565b60006134d1601c8361210f565b91506134dc8261349b565b602082019050919050565b60006020820190508181036000830152613500816134c4565b905091905056fea2646970667358221220deee0d6a428859296b21ee10241827912676d27e27ed34a27cd84e3832392c6764736f6c63430008090033",
  "linkReferences": {},
  "deployedLinkReferences": {}
}