{
  "_format": "hh-sol-artifact-1",
  "contractName": "Warra_NFT",
  "sourceName": "contracts/warra-nft.sol",
  "abi": [
    {
      "inputs": [],
      "stateMutability": "nonpayable",
      "type": "constructor"
    },
    {
      "anonymous": false,
      "inputs": [
        {
          "indexed": true,
          "internalType": "address",
          "name": "owner",
          "type": "address"
        },
        {
          "indexed": true,
          "internalType": "address",
          "name": "approved",
          "type": "address"
        },
        {
          "indexed": true,
          "internalType": "uint256",
          "name": "tokenId",
          "type": "uint256"
        }
      ],
      "name": "Approval",
      "type": "event"
    },
    {
      "anonymous": false,
      "inputs": [
        {
          "indexed": true,
          "internalType": "address",
          "name": "owner",
          "type": "address"
        },
        {
          "indexed": true,
          "internalType": "address",
          "name": "operator",
          "type": "address"
        },
        {
          "indexed": false,
          "internalType": "bool",
          "name": "approved",
          "type": "bool"
        }
      ],
      "name": "ApprovalForAll",
      "type": "event"
    },
    {
      "anonymous": false,
      "inputs": [
        {
          "indexed": true,
          "internalType": "address",
          "name": "previousOwner",
          "type": "address"
        },
        {
          "indexed": true,
          "internalType": "address",
          "name": "newOwner",
          "type": "address"
        }
      ],
      "name": "OwnershipTransferred",
      "type": "event"
    },
    {
      "anonymous": false,
      "inputs": [
        {
          "indexed": true,
          "internalType": "address",
          "name": "from",
          "type": "address"
        },
        {
          "indexed": true,
          "internalType": "address",
          "name": "to",
          "type": "address"
        },
        {
          "indexed": true,
          "internalType": "uint256",
          "name": "tokenId",
          "type": "uint256"
        }
      ],
      "name": "Transfer",
      "type": "event"
    },
    {
      "anonymous": false,
      "inputs": [
        {
          "indexed": false,
          "internalType": "uint256",
          "name": "tokenId",
          "type": "uint256"
        },
        {
          "indexed": false,
          "internalType": "string",
          "name": "tokenUri",
          "type": "string"
        },
        {
          "indexed": false,
          "internalType": "string",
          "name": "activity",
          "type": "string"
        },
        {
          "indexed": false,
          "internalType": "address",
          "name": "caller",
          "type": "address"
        },
        {
          "indexed": false,
          "internalType": "address",
          "name": "associated",
          "type": "address"
        },
        {
          "indexed": false,
          "internalType": "uint256",
          "name": "timestamp",
          "type": "uint256"
        }
      ],
      "name": "activityOnTokenCalled",
      "type": "event"
    },
    {
      "inputs": [
        {
          "internalType": "address",
          "name": "to",
          "type": "address"
        },
        {
          "internalType": "uint256",
          "name": "tokenId",
          "type": "uint256"
        }
      ],
      "name": "approve",
      "outputs": [],
      "stateMutability": "nonpayable",
      "type": "function"
    },
    {
      "inputs": [
        {
          "internalType": "uint256",
          "name": "tokenId",
          "type": "uint256"
        },
        {
          "internalType": "string",
          "name": "activity",
          "type": "string"
        }
      ],
      "name": "availService",
      "outputs": [],
      "stateMutability": "nonpayable",
      "type": "function"
    },
    {
      "inputs": [
        {
          "internalType": "address",
          "name": "owner",
          "type": "address"
        }
      ],
      "name": "balanceOf",
      "outputs": [
        {
          "internalType": "uint256",
          "name": "",
          "type": "uint256"
        }
      ],
      "stateMutability": "view",
      "type": "function"
    },
    {
      "inputs": [
        {
          "internalType": "string",
          "name": "tokenURI",
          "type": "string"
        },
        {
          "internalType": "uint256",
          "name": "numberOfDays",
          "type": "uint256"
        }
      ],
      "name": "createWarranty",
      "outputs": [
        {
          "internalType": "uint256",
          "name": "",
          "type": "uint256"
        }
      ],
      "stateMutability": "nonpayable",
      "type": "function"
    },
    {
      "inputs": [
        {
          "internalType": "uint256",
          "name": "tokenId",
          "type": "uint256"
        }
      ],
      "name": "getApproved",
      "outputs": [
        {
          "internalType": "address",
          "name": "",
          "type": "address"
        }
      ],
      "stateMutability": "view",
      "type": "function"
    },
    {
      "inputs": [
        {
          "internalType": "uint256",
          "name": "tokenId",
          "type": "uint256"
        }
      ],
      "name": "getExpiryTime",
      "outputs": [
        {
          "internalType": "uint256",
          "name": "",
          "type": "uint256"
        }
      ],
      "stateMutability": "view",
      "type": "function"
    },
    {
      "inputs": [
        {
          "internalType": "address",
          "name": "caller",
          "type": "address"
        }
      ],
      "name": "getIsNominated",
      "outputs": [
        {
          "internalType": "bool",
          "name": "",
          "type": "bool"
        }
      ],
      "stateMutability": "view",
      "type": "function"
    },
    {
      "inputs": [
        {
          "internalType": "uint256",
          "name": "tokenId",
          "type": "uint256"
        }
      ],
      "name": "getOwner",
      "outputs": [
        {
          "internalType": "address",
          "name": "",
          "type": "address"
        }
      ],
      "stateMutability": "view",
      "type": "function"
    },
    {
      "inputs": [
        {
          "internalType": "uint256",
          "name": "tokenId",
          "type": "uint256"
        }
      ],
      "name": "getProvider",
      "outputs": [
        {
          "internalType": "address",
          "name": "",
          "type": "address"
        }
      ],
      "stateMutability": "view",
      "type": "function"
    },
    {
      "inputs": [],
      "name": "getTokenCounter",
      "outputs": [
        {
          "internalType": "uint256",
          "name": "",
          "type": "uint256"
        }
      ],
      "stateMutability": "view",
      "type": "function"
    },
    {
      "inputs": [
        {
          "internalType": "uint256",
          "name": "tokenId",
          "type": "uint256"
        }
      ],
      "name": "getURI",
      "outputs": [
        {
          "internalType": "string",
          "name": "",
          "type": "string"
        }
      ],
      "stateMutability": "view",
      "type": "function"
    },
    {
      "inputs": [
        {
          "internalType": "address",
          "name": "owner",
          "type": "address"
        },
        {
          "internalType": "address",
          "name": "operator",
          "type": "address"
        }
      ],
      "name": "isApprovedForAll",
      "outputs": [
        {
          "internalType": "bool",
          "name": "",
          "type": "bool"
        }
      ],
      "stateMutability": "view",
      "type": "function"
    },
    {
      "inputs": [],
      "name": "name",
      "outputs": [
        {
          "internalType": "string",
          "name": "",
          "type": "string"
        }
      ],
      "stateMutability": "view",
      "type": "function"
    },
    {
      "inputs": [
        {
          "internalType": "address",
          "name": "nominateAddress",
          "type": "address"
        }
      ],
      "name": "nominate",
      "outputs": [],
      "stateMutability": "nonpayable",
      "type": "function"
    },
    {
      "inputs": [],
      "name": "owner",
      "outputs": [
        {
          "internalType": "address",
          "name": "",
          "type": "address"
        }
      ],
      "stateMutability": "view",
      "type": "function"
    },
    {
      "inputs": [
        {
          "internalType": "uint256",
          "name": "tokenId",
          "type": "uint256"
        }
      ],
      "name": "ownerOf",
      "outputs": [
        {
          "internalType": "address",
          "name": "",
          "type": "address"
        }
      ],
      "stateMutability": "view",
      "type": "function"
    },
    {
      "inputs": [
        {
          "internalType": "uint256",
          "name": "tokenId",
          "type": "uint256"
        }
      ],
      "name": "proveOwnership",
      "outputs": [
        {
          "internalType": "bool",
          "name": "",
          "type": "bool"
        }
      ],
      "stateMutability": "view",
      "type": "function"
    },
    {
      "inputs": [],
      "name": "renounceOwnership",
      "outputs": [],
      "stateMutability": "nonpayable",
      "type": "function"
    },
    {
      "inputs": [
        {
          "internalType": "address",
          "name": "from",
          "type": "address"
        },
        {
          "internalType": "address",
          "name": "to",
          "type": "address"
        },
        {
          "internalType": "uint256",
          "name": "tokenId",
          "type": "uint256"
        }
      ],
      "name": "safeTransferFrom",
      "outputs": [],
      "stateMutability": "nonpayable",
      "type": "function"
    },
    {
      "inputs": [
        {
          "internalType": "address",
          "name": "from",
          "type": "address"
        },
        {
          "internalType": "address",
          "name": "to",
          "type": "address"
        },
        {
          "internalType": "uint256",
          "name": "tokenId",
          "type": "uint256"
        },
        {
          "internalType": "bytes",
          "name": "data",
          "type": "bytes"
        }
      ],
      "name": "safeTransferFrom",
      "outputs": [],
      "stateMutability": "nonpayable",
      "type": "function"
    },
    {
      "inputs": [
        {
          "internalType": "address",
          "name": "operator",
          "type": "address"
        },
        {
          "internalType": "bool",
          "name": "approved",
          "type": "bool"
        }
      ],
      "name": "setApprovalForAll",
      "outputs": [],
      "stateMutability": "nonpayable",
      "type": "function"
    },
    {
      "inputs": [
        {
          "internalType": "bytes4",
          "name": "interfaceId",
          "type": "bytes4"
        }
      ],
      "name": "supportsInterface",
      "outputs": [
        {
          "internalType": "bool",
          "name": "",
          "type": "bool"
        }
      ],
      "stateMutability": "view",
      "type": "function"
    },
    {
      "inputs": [],
      "name": "symbol",
      "outputs": [
        {
          "internalType": "string",
          "name": "",
          "type": "string"
        }
      ],
      "stateMutability": "view",
      "type": "function"
    },
    {
      "inputs": [
        {
          "internalType": "uint256",
          "name": "tokenId",
          "type": "uint256"
        }
      ],
      "name": "tokenURI",
      "outputs": [
        {
          "internalType": "string",
          "name": "",
          "type": "string"
        }
      ],
      "stateMutability": "view",
      "type": "function"
    },
    {
      "inputs": [
        {
          "internalType": "address",
          "name": "to",
          "type": "address"
        },
        {
          "internalType": "uint256",
          "name": "tokenId",
          "type": "uint256"
        }
      ],
      "name": "transfer",
      "outputs": [],
      "stateMutability": "nonpayable",
      "type": "function"
    },
    {
      "inputs": [
        {
          "internalType": "address",
          "name": "from",
          "type": "address"
        },
        {
          "internalType": "address",
          "name": "to",
          "type": "address"
        },
        {
          "internalType": "uint256",
          "name": "tokenId",
          "type": "uint256"
        }
      ],
      "name": "transferFrom",
      "outputs": [],
      "stateMutability": "nonpayable",
      "type": "function"
    },
    {
      "inputs": [
        {
          "internalType": "address",
          "name": "newOwner",
          "type": "address"
        }
      ],
      "name": "transferOwnership",
      "outputs": [],
      "stateMutability": "nonpayable",
      "type": "function"
    }
  ],
  "bytecode": "0x60806040523480156200001157600080fd5b506040518060400160405280600a81526020017f652d57617272616e7479000000000000000000000000000000000000000000008152506040518060400160405280600681526020017f652d574e46540000000000000000000000000000000000000000000000000000815250816000908051906020019062000096929190620001ae565b508060019080519060200190620000af929190620001ae565b505050620000d2620000c6620000e060201b60201c565b620000e860201b60201c565b6000600881905550620002c3565b600033905090565b6000600760009054906101000a900473ffffffffffffffffffffffffffffffffffffffff16905081600760006101000a81548173ffffffffffffffffffffffffffffffffffffffff021916908373ffffffffffffffffffffffffffffffffffffffff1602179055508173ffffffffffffffffffffffffffffffffffffffff168173ffffffffffffffffffffffffffffffffffffffff167f8be0079c531659141344cd1fd0a4f28419497f9722a3daafe3b4186f6b6457e060405160405180910390a35050565b828054620001bc906200025e565b90600052602060002090601f016020900481019282620001e057600085556200022c565b82601f10620001fb57805160ff19168380011785556200022c565b828001600101855582156200022c579182015b828111156200022b5782518255916020019190600101906200020e565b5b5090506200023b91906200023f565b5090565b5b808211156200025a57600081600090555060010162000240565b5090565b600060028204905060018216806200027757607f821691505b602082108114156200028e576200028d62000294565b5b50919050565b7f4e487b7100000000000000000000000000000000000000000000000000000000600052602260045260246000fd5b61387680620002d36000396000f3fe608060405234801561001057600080fd5b50600436106101a95760003560e01c8063715018a6116100f9578063b88d4fde11610097578063d831a7c611610071578063d831a7c6146104f0578063e83627fa14610520578063e985e9c514610550578063f2fde38b14610580576101a9565b8063b88d4fde14610474578063c41a360a14610490578063c87b56dd146104c0576101a9565b8063a22cb465116100d3578063a22cb465146103f0578063a9059cbb1461040c578063ae30d69b14610428578063b332180b14610458576101a9565b8063715018a6146103aa5780638da5cb5b146103b457806395d89b41146103d2576101a9565b8063319da29b116101665780635c42d079116101405780635c42d079146102fc5780636352211e1461032c5780636e02007d1461035c57806370a082311461037a576101a9565b8063319da29b1461029457806335321c40146102b057806342842e0e146102e0576101a9565b806301ffc9a7146101ae57806306fdde03146101de578063081812fc146101fc578063095ea7b31461022c5780631aa347dc1461024857806323b872dd14610278575b600080fd5b6101c860048036038101906101c391906125c1565b61059c565b6040516101d59190612af4565b60405180910390f35b6101e661067e565b6040516101f39190612b0f565b60405180910390f35b61021660048036038101906102119190612677565b610710565b6040516102239190612a8d565b60405180910390f35b61024660048036038101906102419190612581565b610756565b005b610262600480360381019061025d9190612677565b61086e565b60405161026f9190612b0f565b60405180910390f35b610292600480360381019061028d919061246b565b610880565b005b6102ae60048036038101906102a991906126a4565b6108e0565b005b6102ca60048036038101906102c591906123fe565b610a15565b6040516102d79190612af4565b60405180910390f35b6102fa60048036038101906102f5919061246b565b610a6b565b005b61031660048036038101906103119190612677565b610a8b565b6040516103239190612a8d565b60405180910390f35b61034660048036038101906103419190612677565b610ac8565b6040516103539190612a8d565b60405180910390f35b610364610b7a565b6040516103719190612d51565b60405180910390f35b610394600480360381019061038f91906123fe565b610b84565b6040516103a19190612d51565b60405180910390f35b6103b2610c3c565b005b6103bc610c50565b6040516103c99190612a8d565b60405180910390f35b6103da610c7a565b6040516103e79190612b0f565b60405180910390f35b61040a60048036038101906104059190612541565b610d0c565b005b61042660048036038101906104219190612581565b610d22565b005b610442600480360381019061043d919061261b565b610dd4565b60405161044f9190612d51565b60405180910390f35b610472600480360381019061046d91906123fe565b610f9c565b005b61048e600480360381019061048991906124be565b6110c0565b005b6104aa60048036038101906104a59190612677565b611122565b6040516104b79190612a8d565b60405180910390f35b6104da60048036038101906104d59190612677565b611134565b6040516104e79190612b0f565b60405180910390f35b61050a60048036038101906105059190612677565b611247565b6040516105179190612d51565b60405180910390f35b61053a60048036038101906105359190612677565b611264565b6040516105479190612af4565b60405180910390f35b61056a6004803603810190610565919061242b565b6112a4565b6040516105779190612af4565b60405180910390f35b61059a600480360381019061059591906123fe565b611338565b005b60007f80ac58cd000000000000000000000000000000000000000000000000000000007bffffffffffffffffffffffffffffffffffffffffffffffffffffffff1916827bffffffffffffffffffffffffffffffffffffffffffffffffffffffff1916148061066757507f5b5e139f000000000000000000000000000000000000000000000000000000007bffffffffffffffffffffffffffffffffffffffffffffffffffffffff1916827bffffffffffffffffffffffffffffffffffffffffffffffffffffffff1916145b806106775750610676826113bc565b5b9050919050565b60606000805461068d9061314a565b80601f01602080910402602001604051908101604052809291908181526020018280546106b99061314a565b80156107065780601f106106db57610100808354040283529160200191610706565b820191906000526020600020905b8154815290600101906020018083116106e957829003601f168201915b5050505050905090565b600061071b82611426565b6004600083815260200190815260200160002060009054906101000a900473ffffffffffffffffffffffffffffffffffffffff169050919050565b600061076182610ac8565b90508073ffffffffffffffffffffffffffffffffffffffff168373ffffffffffffffffffffffffffffffffffffffff1614156107d2576040517f08c379a00000000000000000000000000000000000000000000000000000000081526004016107c990612d11565b60405180910390fd5b8073ffffffffffffffffffffffffffffffffffffffff166107f1611471565b73ffffffffffffffffffffffffffffffffffffffff161480610820575061081f8161081a611471565b6112a4565b5b61085f576040517f08c379a000000000000000000000000000000000000000000000000000000000815260040161085690612c91565b60405180910390fd5b6108698383611479565b505050565b606061087982611134565b9050919050565b61089161088b611471565b82611532565b6108d0576040517f08c379a00000000000000000000000000000000000000000000000000000000081526004016108c790612d31565b60405180910390fd5b6108db8383836115c7565b505050565b81600b600082815260200190815260200160002060009054906101000a900473ffffffffffffffffffffffffffffffffffffffff1673ffffffffffffffffffffffffffffffffffffffff163373ffffffffffffffffffffffffffffffffffffffff161480610981575061095281611122565b73ffffffffffffffffffffffffffffffffffffffff163373ffffffffffffffffffffffffffffffffffffffff16145b6109c0576040517f08c379a00000000000000000000000000000000000000000000000000000000081526004016109b790612bf1565b60405180910390fd5b60006109cb8461086e565b90507f256b74da370c22b36b6586b8613b832bb1577c616ffe41a414a32b71c0c4d68084828533600042604051610a0796959493929190612d6c565b60405180910390a150505050565b6000600960008373ffffffffffffffffffffffffffffffffffffffff1673ffffffffffffffffffffffffffffffffffffffff16815260200190815260200160002060009054906101000a900460ff169050919050565b610a86838383604051806020016040528060008152506110c0565b505050565b6000600b600083815260200190815260200160002060009054906101000a900473ffffffffffffffffffffffffffffffffffffffff169050919050565b6000806002600084815260200190815260200160002060009054906101000a900473ffffffffffffffffffffffffffffffffffffffff169050600073ffffffffffffffffffffffffffffffffffffffff168173ffffffffffffffffffffffffffffffffffffffff161415610b71576040517f08c379a0000000000000000000000000000000000000000000000000000000008152600401610b6890612cf1565b60405180910390fd5b80915050919050565b6000600854905090565b60008073ffffffffffffffffffffffffffffffffffffffff168273ffffffffffffffffffffffffffffffffffffffff161415610bf5576040517f08c379a0000000000000000000000000000000000000000000000000000000008152600401610bec90612c51565b60405180910390fd5b600360008373ffffffffffffffffffffffffffffffffffffffff1673ffffffffffffffffffffffffffffffffffffffff168152602001908152602001600020549050919050565b610c4461182e565b610c4e60006118ac565b565b6000600760009054906101000a900473ffffffffffffffffffffffffffffffffffffffff16905090565b606060018054610c899061314a565b80601f0160208091040260200160405190810160405280929190818152602001828054610cb59061314a565b8015610d025780601f10610cd757610100808354040283529160200191610d02565b820191906000526020600020905b815481529060010190602001808311610ce557829003601f168201915b5050505050905090565b610d1e610d17611471565b8383611972565b5050565b600a600082815260200190815260200160002054421115610d78576040517f08c379a0000000000000000000000000000000000000000000000000000000008152600401610d6f90612c11565b60405180910390fd5b610d83338383610a6b565b6000610d8e8261086e565b90507f256b74da370c22b36b6586b8613b832bb1577c616ffe41a414a32b71c0c4d6808282338642604051610dc7959493929190612e48565b60405180910390a1505050565b6000610dde610c50565b73ffffffffffffffffffffffffffffffffffffffff163373ffffffffffffffffffffffffffffffffffffffff161480610e605750600960003373ffffffffffffffffffffffffffffffffffffffff1673ffffffffffffffffffffffffffffffffffffffff16815260200190815260200160002060009054906101000a900460ff165b610e9f576040517f08c379a0000000000000000000000000000000000000000000000000000000008152600401610e9690612c31565b60405180910390fd5b60006008549050610eb03382611adf565b610eba8185611afd565b6001600854610ec99190612f7f565b60088190555033600b600083815260200190815260200160002060006101000a81548173ffffffffffffffffffffffffffffffffffffffff021916908373ffffffffffffffffffffffffffffffffffffffff1602179055507f256b74da370c22b36b6586b8613b832bb1577c616ffe41a414a32b71c0c4d680818533600042604051610f59959493929190612ddb565b60405180910390a16201518083610f709190613006565b42610f7b9190612f7f565b600a6000838152602001908152602001600020819055508091505092915050565b610fa4610c50565b73ffffffffffffffffffffffffffffffffffffffff163373ffffffffffffffffffffffffffffffffffffffff1614806110265750600960003373ffffffffffffffffffffffffffffffffffffffff1673ffffffffffffffffffffffffffffffffffffffff16815260200190815260200160002060009054906101000a900460ff165b611065576040517f08c379a000000000000000000000000000000000000000000000000000000000815260040161105c90612c31565b60405180910390fd5b6001600960008373ffffffffffffffffffffffffffffffffffffffff1673ffffffffffffffffffffffffffffffffffffffff16815260200190815260200160002060006101000a81548160ff02191690831515021790555050565b6110d16110cb611471565b83611532565b611110576040517f08c379a000000000000000000000000000000000000000000000000000000000815260040161110790612d31565b60405180910390fd5b61111c84848484611b71565b50505050565b600061112d82610ac8565b9050919050565b606061113f82611426565b600060066000848152602001908152602001600020805461115f9061314a565b80601f016020809104026020016040519081016040528092919081815260200182805461118b9061314a565b80156111d85780601f106111ad576101008083540402835291602001916111d8565b820191906000526020600020905b8154815290600101906020018083116111bb57829003601f168201915b5050505050905060006111e9611bcd565b90506000815114156111ff578192505050611242565b60008251111561123457808260405160200161121c929190612a69565b60405160208183030381529060405292505050611242565b61123d84611be4565b925050505b919050565b6000600a6000838152602001908152602001600020549050919050565b600061126f82611122565b73ffffffffffffffffffffffffffffffffffffffff163373ffffffffffffffffffffffffffffffffffffffff16149050919050565b6000600560008473ffffffffffffffffffffffffffffffffffffffff1673ffffffffffffffffffffffffffffffffffffffff16815260200190815260200160002060008373ffffffffffffffffffffffffffffffffffffffff1673ffffffffffffffffffffffffffffffffffffffff16815260200190815260200160002060009054906101000a900460ff16905092915050565b61134061182e565b600073ffffffffffffffffffffffffffffffffffffffff168173ffffffffffffffffffffffffffffffffffffffff1614156113b0576040517f08c379a00000000000000000000000000000000000000000000000000000000081526004016113a790612b51565b60405180910390fd5b6113b9816118ac565b50565b60007f01ffc9a7000000000000000000000000000000000000000000000000000000007bffffffffffffffffffffffffffffffffffffffffffffffffffffffff1916827bffffffffffffffffffffffffffffffffffffffffffffffffffffffff1916149050919050565b61142f81611c4c565b61146e576040517f08c379a000000000000000000000000000000000000000000000000000000000815260040161146590612cf1565b60405180910390fd5b50565b600033905090565b816004600083815260200190815260200160002060006101000a81548173ffffffffffffffffffffffffffffffffffffffff021916908373ffffffffffffffffffffffffffffffffffffffff160217905550808273ffffffffffffffffffffffffffffffffffffffff166114ec83610ac8565b73ffffffffffffffffffffffffffffffffffffffff167f8c5be1e5ebec7d5bd14f71427d1e84f3dd0314c0f7b2291e5b200ac8c7c3b92560405160405180910390a45050565b60008061153e83610ac8565b90508073ffffffffffffffffffffffffffffffffffffffff168473ffffffffffffffffffffffffffffffffffffffff161480611580575061157f81856112a4565b5b806115be57508373ffffffffffffffffffffffffffffffffffffffff166115a684610710565b73ffffffffffffffffffffffffffffffffffffffff16145b91505092915050565b8273ffffffffffffffffffffffffffffffffffffffff166115e782610ac8565b73ffffffffffffffffffffffffffffffffffffffff161461163d576040517f08c379a000000000000000000000000000000000000000000000000000000000815260040161163490612b71565b60405180910390fd5b600073ffffffffffffffffffffffffffffffffffffffff168273ffffffffffffffffffffffffffffffffffffffff1614156116ad576040517f08c379a00000000000000000000000000000000000000000000000000000000081526004016116a490612bb1565b60405180910390fd5b6116b8838383611cb8565b6116c3600082611479565b6001600360008573ffffffffffffffffffffffffffffffffffffffff1673ffffffffffffffffffffffffffffffffffffffff16815260200190815260200160002060008282546117139190613060565b925050819055506001600360008473ffffffffffffffffffffffffffffffffffffffff1673ffffffffffffffffffffffffffffffffffffffff168152602001908152602001600020600082825461176a9190612f7f565b92505081905550816002600083815260200190815260200160002060006101000a81548173ffffffffffffffffffffffffffffffffffffffff021916908373ffffffffffffffffffffffffffffffffffffffff160217905550808273ffffffffffffffffffffffffffffffffffffffff168473ffffffffffffffffffffffffffffffffffffffff167fddf252ad1be2c89b69c2b068fc378daa952ba7f163c4a11628f55a4df523b3ef60405160405180910390a4611829838383611cbd565b505050565b611836611471565b73ffffffffffffffffffffffffffffffffffffffff16611854610c50565b73ffffffffffffffffffffffffffffffffffffffff16146118aa576040517f08c379a00000000000000000000000000000000000000000000000000000000081526004016118a190612cd1565b60405180910390fd5b565b6000600760009054906101000a900473ffffffffffffffffffffffffffffffffffffffff16905081600760006101000a81548173ffffffffffffffffffffffffffffffffffffffff021916908373ffffffffffffffffffffffffffffffffffffffff1602179055508173ffffffffffffffffffffffffffffffffffffffff168173ffffffffffffffffffffffffffffffffffffffff167f8be0079c531659141344cd1fd0a4f28419497f9722a3daafe3b4186f6b6457e060405160405180910390a35050565b8173ffffffffffffffffffffffffffffffffffffffff168373ffffffffffffffffffffffffffffffffffffffff1614156119e1576040517f08c379a00000000000000000000000000000000000000000000000000000000081526004016119d890612bd1565b60405180910390fd5b80600560008573ffffffffffffffffffffffffffffffffffffffff1673ffffffffffffffffffffffffffffffffffffffff16815260200190815260200160002060008473ffffffffffffffffffffffffffffffffffffffff1673ffffffffffffffffffffffffffffffffffffffff16815260200190815260200160002060006101000a81548160ff0219169083151502179055508173ffffffffffffffffffffffffffffffffffffffff168373ffffffffffffffffffffffffffffffffffffffff167f17307eab39ab6107e8899845ad3d59bd9653f200f220920489ca2b5937696c3183604051611ad29190612af4565b60405180910390a3505050565b611af9828260405180602001604052806000815250611cc2565b5050565b611b0682611c4c565b611b45576040517f08c379a0000000000000000000000000000000000000000000000000000000008152600401611b3c90612c71565b60405180910390fd5b80600660008481526020019081526020016000209080519060200190611b6c929190612212565b505050565b611b7c8484846115c7565b611b8884848484611d1d565b611bc7576040517f08c379a0000000000000000000000000000000000000000000000000000000008152600401611bbe90612b31565b60405180910390fd5b50505050565b606060405180602001604052806000815250905090565b6060611bef82611426565b6000611bf9611bcd565b90506000815111611c195760405180602001604052806000815250611c44565b80611c2384611eb4565b604051602001611c34929190612a69565b6040516020818303038152906040525b915050919050565b60008073ffffffffffffffffffffffffffffffffffffffff166002600084815260200190815260200160002060009054906101000a900473ffffffffffffffffffffffffffffffffffffffff1673ffffffffffffffffffffffffffffffffffffffff1614159050919050565b505050565b505050565b611ccc8383612015565b611cd96000848484611d1d565b611d18576040517f08c379a0000000000000000000000000000000000000000000000000000000008152600401611d0f90612b31565b60405180910390fd5b505050565b6000611d3e8473ffffffffffffffffffffffffffffffffffffffff166121ef565b15611ea7578373ffffffffffffffffffffffffffffffffffffffff1663150b7a02611d67611471565b8786866040518563ffffffff1660e01b8152600401611d899493929190612aa8565b602060405180830381600087803b158015611da357600080fd5b505af1925050508015611dd457506040513d601f19601f82011682018060405250810190611dd191906125ee565b60015b611e57573d8060008114611e04576040519150601f19603f3d011682016040523d82523d6000602084013e611e09565b606091505b50600081511415611e4f576040517f08c379a0000000000000000000000000000000000000000000000000000000008152600401611e4690612b31565b60405180910390fd5b805181602001fd5b63150b7a0260e01b7bffffffffffffffffffffffffffffffffffffffffffffffffffffffff1916817bffffffffffffffffffffffffffffffffffffffffffffffffffffffff191614915050611eac565b600190505b949350505050565b60606000821415611efc576040518060400160405280600181526020017f30000000000000000000000000000000000000000000000000000000000000008152509050612010565b600082905060005b60008214611f2e578080611f17906131ad565b915050600a82611f279190612fd5565b9150611f04565b60008167ffffffffffffffff811115611f4a57611f496132e3565b5b6040519080825280601f01601f191660200182016040528015611f7c5781602001600182028036833780820191505090505b5090505b6000851461200957600182611f959190613060565b9150600a85611fa491906131f6565b6030611fb09190612f7f565b60f81b818381518110611fc657611fc56132b4565b5b60200101907effffffffffffffffffffffffffffffffffffffffffffffffffffffffffffff1916908160001a905350600a856120029190612fd5565b9450611f80565b8093505050505b919050565b600073ffffffffffffffffffffffffffffffffffffffff168273ffffffffffffffffffffffffffffffffffffffff161415612085576040517f08c379a000000000000000000000000000000000000000000000000000000000815260040161207c90612cb1565b60405180910390fd5b61208e81611c4c565b156120ce576040517f08c379a00000000000000000000000000000000000000000000000000000000081526004016120c590612b91565b60405180910390fd5b6120da60008383611cb8565b6001600360008473ffffffffffffffffffffffffffffffffffffffff1673ffffffffffffffffffffffffffffffffffffffff168152602001908152602001600020600082825461212a9190612f7f565b92505081905550816002600083815260200190815260200160002060006101000a81548173ffffffffffffffffffffffffffffffffffffffff021916908373ffffffffffffffffffffffffffffffffffffffff160217905550808273ffffffffffffffffffffffffffffffffffffffff16600073ffffffffffffffffffffffffffffffffffffffff167fddf252ad1be2c89b69c2b068fc378daa952ba7f163c4a11628f55a4df523b3ef60405160405180910390a46121eb60008383611cbd565b5050565b6000808273ffffffffffffffffffffffffffffffffffffffff163b119050919050565b82805461221e9061314a565b90600052602060002090601f0160209004810192826122405760008555612287565b82601f1061225957805160ff1916838001178555612287565b82800160010185558215612287579182015b8281111561228657825182559160200191906001019061226b565b5b5090506122949190612298565b5090565b5b808211156122b1576000816000905550600101612299565b5090565b60006122c86122c384612eda565b612eb5565b9050828152602081018484840111156122e4576122e3613317565b5b6122ef848285613108565b509392505050565b600061230a61230584612f0b565b612eb5565b90508281526020810184848401111561232657612325613317565b5b612331848285613108565b509392505050565b600081359050612348816137e4565b92915050565b60008135905061235d816137fb565b92915050565b60008135905061237281613812565b92915050565b60008151905061238781613812565b92915050565b600082601f8301126123a2576123a1613312565b5b81356123b28482602086016122b5565b91505092915050565b600082601f8301126123d0576123cf613312565b5b81356123e08482602086016122f7565b91505092915050565b6000813590506123f881613829565b92915050565b60006020828403121561241457612413613321565b5b600061242284828501612339565b91505092915050565b6000806040838503121561244257612441613321565b5b600061245085828601612339565b925050602061246185828601612339565b9150509250929050565b60008060006060848603121561248457612483613321565b5b600061249286828701612339565b93505060206124a386828701612339565b92505060406124b4868287016123e9565b9150509250925092565b600080600080608085870312156124d8576124d7613321565b5b60006124e687828801612339565b94505060206124f787828801612339565b9350506040612508878288016123e9565b925050606085013567ffffffffffffffff8111156125295761252861331c565b5b6125358782880161238d565b91505092959194509250565b6000806040838503121561255857612557613321565b5b600061256685828601612339565b92505060206125778582860161234e565b9150509250929050565b6000806040838503121561259857612597613321565b5b60006125a685828601612339565b92505060206125b7858286016123e9565b9150509250929050565b6000602082840312156125d7576125d6613321565b5b60006125e584828501612363565b91505092915050565b60006020828403121561260457612603613321565b5b600061261284828501612378565b91505092915050565b6000806040838503121561263257612631613321565b5b600083013567ffffffffffffffff8111156126505761264f61331c565b5b61265c858286016123bb565b925050602061266d858286016123e9565b9150509250929050565b60006020828403121561268d5761268c613321565b5b600061269b848285016123e9565b91505092915050565b600080604083850312156126bb576126ba613321565b5b60006126c9858286016123e9565b925050602083013567ffffffffffffffff8111156126ea576126e961331c565b5b6126f6858286016123bb565b9150509250929050565b61270981613094565b82525050565b612718816130a6565b82525050565b600061272982612f3c565b6127338185612f52565b9350612743818560208601613117565b61274c81613326565b840191505092915050565b600061276282612f47565b61276c8185612f63565b935061277c818560208601613117565b61278581613326565b840191505092915050565b600061279b82612f47565b6127a58185612f74565b93506127b5818560208601613117565b80840191505092915050565b60006127ce603283612f63565b91506127d982613337565b604082019050919050565b60006127f1602683612f63565b91506127fc82613386565b604082019050919050565b6000612814602583612f63565b915061281f826133d5565b604082019050919050565b6000612837601c83612f63565b915061284282613424565b602082019050919050565b600061285a602483612f63565b91506128658261344d565b604082019050919050565b600061287d601983612f63565b91506128888261349c565b602082019050919050565b60006128a0602983612f63565b91506128ab826134c5565b604082019050919050565b60006128c3601383612f63565b91506128ce82613514565b602082019050919050565b60006128e6602583612f63565b91506128f18261353d565b604082019050919050565b6000612909602983612f63565b91506129148261358c565b604082019050919050565b600061292c602e83612f63565b9150612937826135db565b604082019050919050565b600061294f603e83612f63565b915061295a8261362a565b604082019050919050565b6000612972602083612f63565b915061297d82613679565b602082019050919050565b6000612995600683612f63565b91506129a0826136a2565b602082019050919050565b60006129b8600883612f63565b91506129c3826136cb565b602082019050919050565b60006129db602083612f63565b91506129e6826136f4565b602082019050919050565b60006129fe601883612f63565b9150612a098261371d565b602082019050919050565b6000612a21602183612f63565b9150612a2c82613746565b604082019050919050565b6000612a44602e83612f63565b9150612a4f82613795565b604082019050919050565b612a63816130fe565b82525050565b6000612a758285612790565b9150612a818284612790565b91508190509392505050565b6000602082019050612aa26000830184612700565b92915050565b6000608082019050612abd6000830187612700565b612aca6020830186612700565b612ad76040830185612a5a565b8181036060830152612ae9818461271e565b905095945050505050565b6000602082019050612b09600083018461270f565b92915050565b60006020820190508181036000830152612b298184612757565b905092915050565b60006020820190508181036000830152612b4a816127c1565b9050919050565b60006020820190508181036000830152612b6a816127e4565b9050919050565b60006020820190508181036000830152612b8a81612807565b9050919050565b60006020820190508181036000830152612baa8161282a565b9050919050565b60006020820190508181036000830152612bca8161284d565b9050919050565b60006020820190508181036000830152612bea81612870565b9050919050565b60006020820190508181036000830152612c0a81612893565b9050919050565b60006020820190508181036000830152612c2a816128b6565b9050919050565b60006020820190508181036000830152612c4a816128d9565b9050919050565b60006020820190508181036000830152612c6a816128fc565b9050919050565b60006020820190508181036000830152612c8a8161291f565b9050919050565b60006020820190508181036000830152612caa81612942565b9050919050565b60006020820190508181036000830152612cca81612965565b9050919050565b60006020820190508181036000830152612cea816129ce565b9050919050565b60006020820190508181036000830152612d0a816129f1565b9050919050565b60006020820190508181036000830152612d2a81612a14565b9050919050565b60006020820190508181036000830152612d4a81612a37565b9050919050565b6000602082019050612d666000830184612a5a565b92915050565b600060c082019050612d816000830189612a5a565b8181036020830152612d938188612757565b90508181036040830152612da78187612757565b9050612db66060830186612700565b612dc36080830185612700565b612dd060a0830184612a5a565b979650505050505050565b600060c082019050612df06000830188612a5a565b8181036020830152612e028187612757565b90508181036040830152612e1581612988565b9050612e246060830186612700565b612e316080830185612700565b612e3e60a0830184612a5a565b9695505050505050565b600060c082019050612e5d6000830188612a5a565b8181036020830152612e6f8187612757565b90508181036040830152612e82816129ab565b9050612e916060830186612700565b612e9e6080830185612700565b612eab60a0830184612a5a565b9695505050505050565b6000612ebf612ed0565b9050612ecb828261317c565b919050565b6000604051905090565b600067ffffffffffffffff821115612ef557612ef46132e3565b5b612efe82613326565b9050602081019050919050565b600067ffffffffffffffff821115612f2657612f256132e3565b5b612f2f82613326565b9050602081019050919050565b600081519050919050565b600081519050919050565b600082825260208201905092915050565b600082825260208201905092915050565b600081905092915050565b6000612f8a826130fe565b9150612f95836130fe565b9250827fffffffffffffffffffffffffffffffffffffffffffffffffffffffffffffffff03821115612fca57612fc9613227565b5b828201905092915050565b6000612fe0826130fe565b9150612feb836130fe565b925082612ffb57612ffa613256565b5b828204905092915050565b6000613011826130fe565b915061301c836130fe565b9250817fffffffffffffffffffffffffffffffffffffffffffffffffffffffffffffffff048311821515161561305557613054613227565b5b828202905092915050565b600061306b826130fe565b9150613076836130fe565b92508282101561308957613088613227565b5b828203905092915050565b600061309f826130de565b9050919050565b60008115159050919050565b60007fffffffff0000000000000000000000000000000000000000000000000000000082169050919050565b600073ffffffffffffffffffffffffffffffffffffffff82169050919050565b6000819050919050565b82818337600083830152505050565b60005b8381101561313557808201518184015260208101905061311a565b83811115613144576000848401525b50505050565b6000600282049050600182168061316257607f821691505b6020821081141561317657613175613285565b5b50919050565b61318582613326565b810181811067ffffffffffffffff821117156131a4576131a36132e3565b5b80604052505050565b60006131b8826130fe565b91507fffffffffffffffffffffffffffffffffffffffffffffffffffffffffffffffff8214156131eb576131ea613227565b5b600182019050919050565b6000613201826130fe565b915061320c836130fe565b92508261321c5761321b613256565b5b828206905092915050565b7f4e487b7100000000000000000000000000000000000000000000000000000000600052601160045260246000fd5b7f4e487b7100000000000000000000000000000000000000000000000000000000600052601260045260246000fd5b7f4e487b7100000000000000000000000000000000000000000000000000000000600052602260045260246000fd5b7f4e487b7100000000000000000000000000000000000000000000000000000000600052603260045260246000fd5b7f4e487b7100000000000000000000000000000000000000000000000000000000600052604160045260246000fd5b600080fd5b600080fd5b600080fd5b600080fd5b6000601f19601f8301169050919050565b7f4552433732313a207472616e7366657220746f206e6f6e20455243373231526560008201527f63656976657220696d706c656d656e7465720000000000000000000000000000602082015250565b7f4f776e61626c653a206e6577206f776e657220697320746865207a65726f206160008201527f6464726573730000000000000000000000000000000000000000000000000000602082015250565b7f4552433732313a207472616e736665722066726f6d20696e636f72726563742060008201527f6f776e6572000000000000000000000000000000000000000000000000000000602082015250565b7f4552433732313a20746f6b656e20616c7265616479206d696e74656400000000600082015250565b7f4552433732313a207472616e7366657220746f20746865207a65726f2061646460008201527f7265737300000000000000000000000000000000000000000000000000000000602082015250565b7f4552433732313a20617070726f766520746f2063616c6c657200000000000000600082015250565b7f43616c6c6572206973206e6f742070726f7669646572206f72206f776e65722060008201527f6f6620652d574e46540000000000000000000000000000000000000000000000602082015250565b7f652d574e46542068617320657870697265642100000000000000000000000000600082015250565b7f43616c6c6572206973206e656974686572206f776e6572206e6f72206e6f6d6960008201527f6e61746564000000000000000000000000000000000000000000000000000000602082015250565b7f4552433732313a2061646472657373207a65726f206973206e6f74206120766160008201527f6c6964206f776e65720000000000000000000000000000000000000000000000602082015250565b7f45524337323155524953746f726167653a2055524920736574206f66206e6f6e60008201527f6578697374656e7420746f6b656e000000000000000000000000000000000000602082015250565b7f4552433732313a20617070726f76652063616c6c6572206973206e6f7420746f60008201527f6b656e206f776e6572206e6f7220617070726f76656420666f7220616c6c0000602082015250565b7f4552433732313a206d696e7420746f20746865207a65726f2061646472657373600082015250565b7f4352454154450000000000000000000000000000000000000000000000000000600082015250565b7f5452414e53464552000000000000000000000000000000000000000000000000600082015250565b7f4f776e61626c653a2063616c6c6572206973206e6f7420746865206f776e6572600082015250565b7f4552433732313a20696e76616c696420746f6b656e2049440000000000000000600082015250565b7f4552433732313a20617070726f76616c20746f2063757272656e74206f776e6560008201527f7200000000000000000000000000000000000000000000000000000000000000602082015250565b7f4552433732313a2063616c6c6572206973206e6f7420746f6b656e206f776e6560008201527f72206e6f7220617070726f766564000000000000000000000000000000000000602082015250565b6137ed81613094565b81146137f857600080fd5b50565b613804816130a6565b811461380f57600080fd5b50565b61381b816130b2565b811461382657600080fd5b50565b613832816130fe565b811461383d57600080fd5b5056fea2646970667358221220a2c250d277cdc4c96a4e0d63cf90377f26224c94800bf10826c2f5023e884a0e64736f6c63430008070033",
  "linkReferences": {},
  "deployedLinkReferences": {}
}